[Test 4 : No action (2,000)]
2021-01-08 01:33:23,044 : S >> 8=FIX.4.2 9=141 35=D 34=2 49=TWUAT 52=20210107-17:33:23.000 56=VTUAT 1=TRYIKANG 11=1610040803044 21=1 38=2000 40=1 54=1 55=NOK 59=0 60=20210107-17:33:23.044 10=084
2021-01-08 01:33:25,386 : R << 8=FIX.4.2 9=223 35=8 34=2 49=VTUAT 52=20210107-17:33:25.740 56=TWUAT 6=0 11=1610040803044 14=0 15=USD 17=3228182 20=0 31=0 32=0 37=BV12437467 38=2000 39=A 40=1 54=1 55=NOK 58=PENDING NEW 59=0 60=20210107-17:33:10.537 150=A 151=2000 167=CS 10=224
2021-01-08 01:33:27,415 : R << 8=FIX.4.2 9=220 35=8 34=3 49=VTUAT 52=20210107-17:33:27.769 56=TWUAT 6=0 11=1610040803044 14=0 15=USD 17=3228184 20=0 31=0 32=0 37=BV12437467 38=2000 39=0 40=1 54=1 55=NOK 58=ACCEPTED 59=0 60=20210107-17:33:11.010 150=0 151=2000 167=CS 10=232
2021-01-08 01:33:27,416 : S >> 8=FIX.4.2 9=135 35=F 34=3 49=TWUAT 52=20210107-17:33:27.000 56=VTUAT 1=TRYIKANG 11=1610040807416 41=1610040803044 54=1 55=NOK 60=20210107-17:33:27.416 10=178
2021-01-08 01:33:31,745 : R << 8=FIX.4.2 9=243 35=8 34=4 49=VTUAT 52=20210107-17:33:32.099 56=TWUAT 6=0 11=1610040807416 14=0 15=USD 17=3228186 20=0 31=0 32=0 37=BV12437467 38=2000 39=6 40=1 41=1610040803044 54=1 55=NOK 58=PENDING CANCEL 59=0 60=20210107-17:33:15.313 150=6 151=2000 167=CS 10=201
2021-01-08 01:33:31,748 : R << 8=FIX.4.2 9=235 35=8 34=5 49=VTUAT 52=20210107-17:33:32.102 56=TWUAT 6=0 11=1610040807416 14=0 15=USD 17=3228187 20=0 31=0 32=0 37=BV12437467 38=2000 39=4 40=1 41=1610040803044 54=1 55=NOK 58=CANCELLED 59=0 60=20210107-17:33:15.313 150=4 151=0 167=CS 10=215

[Test 5 : Too late to cancel (2,300)]
2021-01-08 01:43:00,701 : S >> 8=FIX.4.2 9=141 35=D 34=5 49=TWUAT 52=20210107-17:43:00.000 56=VTUAT 1=TRYIKANG 11=1610041380701 21=1 38=2300 40=1 54=1 55=NOK 59=0 60=20210107-17:43:00.701 10=083
2021-01-08 01:43:03,008 : R << 8=FIX.4.2 9=223 35=8 34=8 49=VTUAT 52=20210107-17:43:03.370 56=TWUAT 6=0 11=1610041380701 14=0 15=USD 17=3228198 20=0 31=0 32=0 37=BV12437498 38=2300 39=A 40=1 54=1 55=NOK 58=PENDING NEW 59=0 60=20210107-17:42:48.173 150=A 151=2300 167=CS 10=251
2021-01-08 01:43:05,115 : R << 8=FIX.4.2 9=220 35=8 34=9 49=VTUAT 52=20210107-17:43:05.478 56=TWUAT 6=0 11=1610041380701 14=0 15=USD 17=3228200 20=0 31=0 32=0 37=BV12437498 38=2300 39=0 40=1 54=1 55=NOK 58=ACCEPTED 59=0 60=20210107-17:42:48.623 150=0 151=2300 167=CS 10=252
2021-01-08 01:43:05,117 : S >> 8=FIX.4.2 9=135 35=F 34=6 49=TWUAT 52=20210107-17:43:05.000 56=VTUAT 1=TRYIKANG 11=1610041385116 41=1610041380701 54=1 55=NOK 60=20210107-17:43:05.116 10=172
2021-01-08 01:43:09,430 : R << 8=FIX.4.2 9=244 35=8 34=10 49=VTUAT 52=20210107-17:43:09.792 56=TWUAT 6=0 11=1610041385116 14=0 15=USD 17=3228202 20=0 31=0 32=0 37=BV12437498 38=2300 39=6 40=1 41=1610041380701 54=1 55=NOK 58=PENDING CANCEL 59=0 60=20210107-17:42:53.010 150=6 151=2300 167=CS 10=247
2021-01-08 01:43:28,064 : R << 8=FIX.4.2 9=236 35=8 34=11 49=VTUAT 52=20210107-17:43:09.794 56=TWUAT 6=4.01 11=1610041380701 14=2300 15=USD 17=3228203 20=0 31=4.01 32=2300 37=BV12437498 38=2300 39=2 40=1 54=1 55=NOK 58=FILLED 59=0 60=20210107-17:42:53.013 76=GNSS 150=2 151=0 167=CS 10=069
2021-01-08 01:43:28,068 : R << 8=FIX.4.2 9=163 35=9 34=12 49=VTUAT 52=20210107-17:43:09.796 56=TWUAT 11=1610041385116 37=BV12437498 39=2 41=1610041380701 58=CANCEL REJECTED 60=20210107-17:42:53.030 102=0 434=1 10=040

[Test 7 : Cancel reject (2,500)]
2021-01-08 02:25:19,469 : S >> 8=FIX.4.2 9=141 35=D 34=2 49=TWUAT 52=20210107-18:25:19.000 56=VTUAT 1=TRYIKANG 11=1610043919469 21=1 38=2500 40=1 54=1 55=NOK 59=0 60=20210107-18:25:19.469 10=136
2021-01-08 02:25:21,775 : R << 8=FIX.4.2 9=223 35=8 34=2 49=VTUAT 52=20210107-18:25:22.169 56=TWUAT 6=0 11=1610043919469 14=0 15=USD 17=3228236 20=0 31=0 32=0 37=BV12437569 38=2500 39=A 40=1 54=1 55=NOK 58=PENDING NEW 59=0 60=20210107-18:25:06.890 150=A 151=2500 167=CS 10=016
2021-01-08 02:25:21,777 : S >> 8=FIX.4.2 9=135 35=F 34=3 49=TWUAT 52=20210107-18:25:21.000 56=VTUAT 1=TRYIKANG 11=1610043921776 41=1610043919469 54=1 55=NOK 60=20210107-18:25:21.777 10=211
2021-01-08 02:25:23,845 : R << 8=FIX.4.2 9=220 35=8 34=3 49=VTUAT 52=20210107-18:25:24.237 56=TWUAT 6=0 11=1610043919469 14=0 15=USD 17=3228238 20=0 31=0 32=0 37=BV12437569 38=2500 39=0 40=1 54=1 55=NOK 58=ACCEPTED 59=0 60=20210107-18:25:07.333 150=0 151=2500 167=CS 10=015
2021-01-08 02:25:27,933 : R << 8=FIX.4.2 9=162 35=9 34=4 49=VTUAT 52=20210107-18:25:28.327 56=TWUAT 11=1610043921776 37=BV12437569 39=0 41=1610043919469 58=CANCEL REJECTED 60=20210107-18:25:11.463 102=0 434=1 10=018

[Test 8 : Cancel/replace reject (2,500)]
2021-01-08 03:27:13,113 : S >> 8=FIX.4.2 9=141 35=D 34=2 49=TWUAT 52=20210107-19:27:13.000 56=VTUAT 1=TRYIKANG 11=1610047633112 21=1 38=2500 40=1 54=1 55=NOK 59=0 60=20210107-19:27:13.113 10=098
2021-01-08 03:27:15,384 : R << 8=FIX.4.2 9=223 35=8 34=2 49=VTUAT 52=20210107-19:27:15.821 56=TWUAT 6=0 11=1610047633112 14=0 15=USD 17=3228279 20=0 31=0 32=0 37=BV12437684 38=2500 39=A 40=1 54=1 55=NOK 58=PENDING NEW 59=0 60=20210107-19:27:00.447 150=A 151=2500 167=CS 10=254
2021-01-08 03:27:17,418 : R << 8=FIX.4.2 9=220 35=8 34=3 49=VTUAT 52=20210107-19:27:17.854 56=TWUAT 6=0 11=1610047633112 14=0 15=USD 17=3228281 20=0 31=0 32=0 37=BV12437684 38=2500 39=0 40=1 54=1 55=NOK 58=ACCEPTED 59=0 60=20210107-19:27:00.890 150=0 151=2500 167=CS 10=007
2021-01-08 03:27:17,419 : S >> 8=FIX.4.2 9=158 35=G 34=3 49=TWUAT 52=20210107-19:27:17.000 56=VTUAT 1=TRYIKANG 11=1610047637419 18=G 21=1 38=2500 40=1 41=1610047633112 54=1 55=NOK 60=20210107-19:27:17.419 10=213
2021-01-08 03:27:21,708 : R << 8=FIX.4.2 9=163 35=9 34=4 49=VTUAT 52=20210107-19:27:22.145 56=TWUAT 11=1610047637419 37=BV12437684 39=0 41=1610047633112 58=REPLACE REJECTED 60=20210107-19:27:05.217 102=0 434=2 10=086

[Test 9 : C/R reject, fill (2,550)]
2021-01-08 03:30:23,243 : S >> 8=FIX.4.2 9=141 35=D 34=2 49=TWUAT 52=20210107-19:30:23.000 56=VTUAT 1=TRYIKANG 11=1610047823243 21=1 38=2550 40=1 54=1 55=NOK 59=0 60=20210107-19:30:23.243 10=103
2021-01-08 03:30:25,523 : R << 8=FIX.4.2 9=223 35=8 34=2 49=VTUAT 52=20210107-19:30:25.962 56=TWUAT 6=0 11=1610047823243 14=0 15=USD 17=3228285 20=0 31=0 32=0 37=BV12437697 38=2550 39=A 40=1 54=1 55=NOK 58=PENDING NEW 59=0 60=20210107-19:30:10.563 150=A 151=2550 167=CS 10=010
2021-01-08 03:30:27,706 : R << 8=FIX.4.2 9=220 35=8 34=3 49=VTUAT 52=20210107-19:30:28.146 56=TWUAT 6=0 11=1610047823243 14=0 15=USD 17=3228287 20=0 31=0 32=0 37=BV12437697 38=2550 39=0 40=1 54=1 55=NOK 58=ACCEPTED 59=0 60=20210107-19:30:11.010 150=0 151=2550 167=CS 10=003
2021-01-08 03:30:27,707 : S >> 8=FIX.4.2 9=158 35=G 34=3 49=TWUAT 52=20210107-19:30:27.000 56=VTUAT 1=TRYIKANG 11=1610047827707 18=G 21=1 38=2550 40=1 41=1610047823243 54=1 55=NOK 60=20210107-19:30:27.707 10=215
2021-01-08 03:30:32,257 : R << 8=FIX.4.2 9=244 35=8 34=4 49=VTUAT 52=20210107-19:30:32.697 56=TWUAT 6=0 11=1610047827707 14=0 15=USD 17=3228290 20=0 31=0 32=0 37=BV12437697 38=2550 39=E 40=1 41=1610047823243 54=1 55=NOK 58=PENDING REPLACE 59=0 60=20210107-19:30:15.507 150=E 151=2550 167=CS 10=112
2021-01-08 03:30:32,259 : R << 8=FIX.4.2 9=235 35=8 34=5 49=VTUAT 52=20210107-19:30:32.699 56=TWUAT 6=4.01 11=1610047823243 14=2550 15=USD 17=3228291 20=0 31=4.01 32=2550 37=BV12437697 38=2550 39=2 40=1 54=1 55=NOK 58=FILLED 59=0 60=20210107-19:30:15.510 76=GNSS 150=2 151=0 167=CS 10=058

[Test 10 : Execution cancel (2,600)]
2021-01-08 03:31:32,449 : S >> 8=FIX.4.2 9=141 35=D 34=6 49=TWUAT 52=20210107-19:31:32.000 56=VTUAT 1=TRYIKANG 11=1610047892448 21=1 38=2600 40=1 54=1 55=NOK 59=0 60=20210107-19:31:32.449 10=126
2021-01-08 03:31:34,719 : R << 8=FIX.4.2 9=223 35=8 34=7 49=VTUAT 52=20210107-19:31:35.160 56=TWUAT 6=0 11=1610047892448 14=0 15=USD 17=3228292 20=0 31=0 32=0 37=BV12437700 38=2600 39=A 40=1 54=1 55=NOK 58=PENDING NEW 59=0 60=20210107-19:31:19.773 150=A 151=2600 167=CS 10=008
2021-01-08 03:31:36,797 : R << 8=FIX.4.2 9=220 35=8 34=8 49=VTUAT 52=20210107-19:31:37.238 56=TWUAT 6=0 11=1610047892448 14=0 15=USD 17=3228294 20=0 31=0 32=0 37=BV12437700 38=2600 39=0 40=1 54=1 55=NOK 58=ACCEPTED 59=0 60=20210107-19:31:20.217 150=0 151=2600 167=CS 10=009
2021-01-08 03:31:36,799 : R << 8=FIX.4.2 9=237 35=8 34=9 49=VTUAT 52=20210107-19:31:37.240 56=TWUAT 6=4.01 11=1610047892448 14=700 15=USD 17=3228295 20=0 31=4.01 32=700 37=BV12437700 38=2600 39=1 40=1 54=1 55=NOK 58=PARTIAL 59=0 60=20210107-19:31:20.237 76=GNSS 150=1 151=1900 167=CS 10=192
2021-01-08 03:31:40,341 : R << 8=FIX.4.2 9=227 35=8 34=10 49=VTUAT 52=20210107-19:31:40.782 56=TWUAT 6=0 11=1610047892448 14=0 15=USD 17=3228296 19=3228295 20=1 31=0 32=0 37=BV12437700 38=2600 39=0 40=1 54=1 55=NOK 58=NEW 59=0 60=20210107-19:31:25.237 150=0 151=2600 167=CS 10=009

[Test 11 : Fill cancel (2,640)]
2021-01-08 03:35:20,859 : S >> 8=FIX.4.2 9=142 35=D 34=14 49=TWUAT 52=20210107-19:35:20.000 56=VTUAT 1=TRYIKANG 11=1610048120858 21=1 38=2640 40=1 54=1 55=NOK 59=0 60=20210107-19:35:20.859 10=175
2021-01-08 03:35:23,163 : R << 8=FIX.4.2 9=224 35=8 34=18 49=VTUAT 52=20210107-19:35:23.607 56=TWUAT 6=0 11=1610048120858 14=0 15=USD 17=3228297 20=0 31=0 32=0 37=BV12437716 38=2640 39=A 40=1 54=1 55=NOK 58=PENDING NEW 59=0 60=20210107-19:35:08.173 150=A 151=2640 167=CS 10=072
2021-01-08 03:35:25,207 : R << 8=FIX.4.2 9=221 35=8 34=19 49=VTUAT 52=20210107-19:35:25.651 56=TWUAT 6=0 11=1610048120858 14=0 15=USD 17=3228299 20=0 31=0 32=0 37=BV12437716 38=2640 39=0 40=1 54=1 55=NOK 58=ACCEPTED 59=0 60=20210107-19:35:08.627 150=0 151=2640 167=CS 10=085
2021-01-08 03:35:25,210 : R << 8=FIX.4.2 9=242 35=8 34=20 49=VTUAT 52=20210107-19:35:25.654 56=TWUAT 6=4.015 11=1610048120858 14=1000 15=USD 17=3228300 20=0 31=4.015 32=1000 37=BV12437716 38=2640 39=1 40=1 54=1 55=NOK 58=PARTIAL 59=0 60=20210107-19:35:08.647 76=GNSS 150=1 151=1640 167=CS 10=177
2021-01-08 03:35:25,212 : R << 8=FIX.4.2 9=238 35=8 34=21 49=VTUAT 52=20210107-19:35:25.656 56=TWUAT 6=4.015 11=1610048120858 14=2640 15=USD 17=3228301 20=0 31=4.015 32=1640 37=BV12437716 38=2640 39=2 40=1 54=1 55=NOK 58=FILLED 59=0 60=20210107-19:35:08.647 76=GNSS 150=2 151=0 167=CS 10=217
2021-01-08 03:35:28,722 : R << 8=FIX.4.2 9=238 35=8 34=22 49=VTUAT 52=20210107-19:35:29.165 56=TWUAT 6=4.015 11=1610048120858 14=1000 15=USD 17=3228302 19=3228301 20=1 31=0 32=0 37=BV12437716 38=2640 39=1 40=1 54=1 55=NOK 58=PARTIAL 59=0 60=20210107-19:35:13.643 150=1 151=1640 167=CS 10=128

[Test 12 : Partial, partial, partial, bust, bust, bust (2,644)]
2021-01-08 03:36:40,331 : S >> 8=FIX.4.2 9=142 35=D 34=17 49=TWUAT 52=20210107-19:36:40.000 56=VTUAT 1=TRYIKANG 11=1610048200331 21=1 38=2644 40=1 54=1 55=NOK 59=0 60=20210107-19:36:40.331 10=158
2021-01-08 03:36:42,656 : R << 8=FIX.4.2 9=224 35=8 34=25 49=VTUAT 52=20210107-19:36:43.101 56=TWUAT 6=0 11=1610048200331 14=0 15=USD 17=3228303 20=0 31=0 32=0 37=BV12437728 38=2644 39=A 40=1 54=1 55=NOK 58=PENDING NEW 59=0 60=20210107-19:36:27.653 150=A 151=2644 167=CS 10=051
2021-01-08 03:36:44,747 : R << 8=FIX.4.2 9=221 35=8 34=26 49=VTUAT 52=20210107-19:36:45.184 56=TWUAT 6=0 11=1610048200331 14=0 15=USD 17=3228305 20=0 31=0 32=0 37=BV12437728 38=2644 39=0 40=1 54=1 55=NOK 58=ACCEPTED 59=0 60=20210107-19:36:28.090 150=0 151=2644 167=CS 10=068
2021-01-08 03:36:44,748 : R << 8=FIX.4.2 9=240 35=8 34=27 49=VTUAT 52=20210107-19:36:45.187 56=TWUAT 6=4.015 11=1610048200331 14=100 15=USD 17=3228306 20=0 31=4.015 32=100 37=BV12437728 38=2644 39=1 40=1 54=1 55=NOK 58=PARTIAL 59=0 60=20210107-19:36:28.107 76=GNSS 150=1 151=2544 167=CS 10=086
2021-01-08 03:36:44,750 : R << 8=FIX.4.2 9=240 35=8 34=28 49=VTUAT 52=20210107-19:36:45.189 56=TWUAT 6=4.015 11=1610048200331 14=200 15=USD 17=3228307 20=0 31=4.015 32=100 37=BV12437728 38=2644 39=1 40=1 54=1 55=NOK 58=PARTIAL 59=0 60=20210107-19:36:28.107 76=GNSS 150=1 151=2444 167=CS 10=090
2021-01-08 03:36:44,753 : R << 8=FIX.4.2 9=240 35=8 34=29 49=VTUAT 52=20210107-19:36:45.192 56=TWUAT 6=4.015 11=1610048200331 14=300 15=USD 17=3228308 20=0 31=4.015 32=100 37=BV12437728 38=2644 39=1 40=1 54=1 55=NOK 58=PARTIAL 59=0 60=20210107-19:36:28.107 76=GNSS 150=1 151=2344 167=CS 10=086
2021-01-08 03:36:44,754 : R << 8=FIX.4.2 9=237 35=8 34=30 49=VTUAT 52=20210107-19:36:45.194 56=TWUAT 6=4.015 11=1610048200331 14=200 15=USD 17=3228309 19=3228308 20=1 31=0 32=0 37=BV12437728 38=2644 39=1 40=1 54=1 55=NOK 58=PARTIAL 59=0 60=20210107-19:36:28.107 150=1 151=2444 167=CS 10=091
2021-01-08 03:36:44,755 : R << 8=FIX.4.2 9=237 35=8 34=31 49=VTUAT 52=20210107-19:36:45.196 56=TWUAT 6=4.015 11=1610048200331 14=100 15=USD 17=3228310 19=3228307 20=1 31=0 32=0 37=BV12437728 38=2644 39=1 40=1 54=1 55=NOK 58=PARTIAL 59=0 60=20210107-19:36:28.137 150=1 151=2544 167=CS 10=088
2021-01-08 03:36:44,756 : R << 8=FIX.4.2 9=231 35=8 34=32 49=VTUAT 52=20210107-19:36:45.198 56=TWUAT 6=4.015 11=1610048200331 14=0 15=USD 17=3228311 19=3228306 20=1 31=0 32=0 37=BV12437728 38=2644 39=0 40=1 54=1 55=NOK 58=NEW 59=0 60=20210107-19:36:28.140 150=0 151=2644 167=CS 10=202

[Test 13 : Partial, Fill, Fill correct (2,645)]
2021-01-08 03:39:31,516 : S >> 8=FIX.4.2 9=142 35=D 34=23 49=TWUAT 52=20210107-19:39:31.000 56=VTUAT 1=TRYIKANG 11=1610048371515 21=1 38=2645 40=1 54=1 55=NOK 59=0 60=20210107-19:39:31.516 10=180
2021-01-08 03:39:33,843 : R << 8=FIX.4.2 9=224 35=8 34=38 49=VTUAT 52=20210107-19:39:34.290 56=TWUAT 6=0 11=1610048371515 14=0 15=USD 17=3228312 20=0 31=0 32=0 37=BV12437737 38=2645 39=A 40=1 54=1 55=NOK 58=PENDING NEW 59=0 60=20210107-19:39:18.837 150=A 151=2645 167=CS 10=089
2021-01-08 03:39:35,909 : R << 8=FIX.4.2 9=221 35=8 34=39 49=VTUAT 52=20210107-19:39:36.355 56=TWUAT 6=0 11=1610048371515 14=0 15=USD 17=3228314 20=0 31=0 32=0 37=BV12437737 38=2645 39=0 40=1 54=1 55=NOK 58=ACCEPTED 59=0 60=20210107-19:39:19.293 150=0 151=2645 167=CS 10=098
2021-01-08 03:39:35,910 : R << 8=FIX.4.2 9=242 35=8 34=40 49=VTUAT 52=20210107-19:39:36.357 56=TWUAT 6=4.015 11=1610048371515 14=1000 15=USD 17=3228315 20=0 31=4.015 32=1000 37=BV12437737 38=2645 39=1 40=1 54=1 55=NOK 58=PARTIAL 59=0 60=20210107-19:39:19.297 76=GNSS 150=1 151=1645 167=CS 10=209
2021-01-08 03:39:35,914 : R << 8=FIX.4.2 9=238 35=8 34=41 49=VTUAT 52=20210107-19:39:36.360 56=TWUAT 6=4.015 11=1610048371515 14=2645 15=USD 17=3228316 20=0 31=4.015 32=1645 37=BV12437737 38=2645 39=2 40=1 54=1 55=NOK 58=FILLED 59=0 60=20210107-19:39:19.313 76=GNSS 150=2 151=0 167=CS 10=235
2021-01-08 03:39:35,917 : R << 8=FIX.4.2 9=241 35=8 34=42 49=VTUAT 52=20210107-19:39:36.362 56=TWUAT 6=4.015 11=1610048371515 14=2645 15=USD 17=3228317 19=3228316 20=2 31=4.015 32=1645 37=BV12437737 38=2645 39=2 40=1 54=1 55=NOK 58=FILLED 59=0 60=20210107-19:39:19.313 150=2 151=0 167=CS 10=022

[Test 14 : Fill cancel, correct (2,650)]
2021-01-08 03:43:23,845 : S >> 8=FIX.4.2 9=141 35=D 34=2 49=TWUAT 52=20210107-19:43:23.000 56=VTUAT 1=TRYIKANG 11=1610048603844 21=1 38=2650 40=1 54=1 55=NOK 59=0 60=20210107-19:43:23.845 10=124
2021-01-08 03:43:26,134 : R << 8=FIX.4.2 9=223 35=8 34=2 49=VTUAT 52=20210107-19:43:26.581 56=TWUAT 6=0 11=1610048603844 14=0 15=USD 17=3228326 20=0 31=0 32=0 37=BV12437759 38=2650 39=A 40=1 54=1 55=NOK 58=PENDING NEW 59=0 60=20210107-19:43:11.140 150=A 151=2650 167=CS 10=009
2021-01-08 03:43:28,222 : R << 8=FIX.4.2 9=220 35=8 34=3 49=VTUAT 52=20210107-19:43:28.672 56=TWUAT 6=0 11=1610048603844 14=0 15=USD 17=3228328 20=0 31=0 32=0 37=BV12437759 38=2650 39=0 40=1 54=1 55=NOK 58=ACCEPTED 59=0 60=20210107-19:43:11.593 150=0 151=2650 167=CS 10=032
2021-01-08 03:43:28,224 : R << 8=FIX.4.2 9=239 35=8 34=4 49=VTUAT 52=20210107-19:43:28.674 56=TWUAT 6=4.01 11=1610048603844 14=1000 15=USD 17=3228329 20=0 31=4.01 32=1000 37=BV12437759 38=2650 39=1 40=1 54=1 55=NOK 58=PARTIAL 59=0 60=20210107-19:43:11.597 76=GNSS 150=1 151=1650 167=CS 10=053
2021-01-08 03:43:28,227 : R << 8=FIX.4.2 9=235 35=8 34=5 49=VTUAT 52=20210107-19:43:28.677 56=TWUAT 6=4.01 11=1610048603844 14=2650 15=USD 17=3228330 20=0 31=4.01 32=1650 37=BV12437759 38=2650 39=2 40=1 54=1 55=NOK 58=FILLED 59=0 60=20210107-19:43:11.613 76=GNSS 150=2 151=0 167=CS 10=066
2021-01-08 03:43:31,732 : R << 8=FIX.4.2 9=236 35=8 34=6 49=VTUAT 52=20210107-19:43:32.181 56=TWUAT 6=4.01 11=1610048603844 14=1000 15=USD 17=3228331 19=3228330 20=1 31=0 32=0 37=BV12437759 38=2650 39=1 40=1 54=1 55=NOK 58=PARTIAL 59=0 60=20210107-19:43:16.593 150=1 151=1650 167=CS 10=038
2021-01-08 03:43:33,799 : R << 8=FIX.4.2 9=235 35=8 34=7 49=VTUAT 52=20210107-19:43:34.249 56=TWUAT 6=4.01 11=1610048603844 14=2650 15=USD 17=3228332 20=0 31=4.01 32=1650 37=BV12437759 38=2650 39=2 40=1 54=1 55=NOK 58=FILLED 59=0 60=20210107-19:43:16.757 76=GNSS 150=2 151=0 167=CS 10=076

[Test 15 : Partial fill (2,700)]
2021-01-08 03:56:46,926 : S >> 8=FIX.4.2 9=141 35=D 34=2 49=TWUAT 52=20210107-19:56:46.000 56=VTUAT 1=TRYIKANG 11=1610049406925 21=1 38=2700 40=1 54=1 55=NOK 59=0 60=20210107-19:56:46.925 10=139
2021-01-08 03:56:49,226 : R << 8=FIX.4.2 9=223 35=8 34=2 49=VTUAT 52=20210107-19:56:49.685 56=TWUAT 6=0 11=1610049406925 14=0 15=USD 17=3228344 20=0 31=0 32=0 37=BV12437785 38=2700 39=A 40=1 54=1 55=NOK 58=PENDING NEW 59=0 60=20210107-19:56:34.220 150=A 151=2700 167=CS 10=024
2021-01-08 03:56:51,294 : R << 8=FIX.4.2 9=220 35=8 34=3 49=VTUAT 52=20210107-19:56:51.753 56=TWUAT 6=0 11=1610049406925 14=0 15=USD 17=3228346 20=0 31=0 32=0 37=BV12437785 38=2700 39=0 40=1 54=1 55=NOK 58=ACCEPTED 59=0 60=20210107-19:56:34.660 150=0 151=2700 167=CS 10=029
2021-01-08 03:56:51,297 : R << 8=FIX.4.2 9=241 35=8 34=4 49=VTUAT 52=20210107-19:56:51.755 56=TWUAT 6=3.9902 11=1610049406925 14=700 15=USD 17=3228347 20=0 31=3.9902 32=700 37=BV12437785 38=2700 39=1 40=1 54=1 55=NOK 58=PARTIAL 59=0 60=20210107-19:56:34.660 76=GNSS 150=1 151=2000 167=CS 10=177
2021-01-08 03:56:51,299 : S >> 8=FIX.4.2 9=135 35=F 34=3 49=TWUAT 52=20210107-19:56:51.000 56=VTUAT 1=TRYIKANG 11=1610049411299 41=1610049406925 54=1 55=NOK 60=20210107-19:56:51.299 10=220 
2021-01-08 03:56:55,640 : R << 8=FIX.4.2 9=250 35=8 34=5 49=VTUAT 52=20210107-19:56:56.098 56=TWUAT 6=3.9902 11=1610049411299 14=700 15=USD 17=3228349 20=0 31=0 32=0 37=BV12437785 38=2700 39=6 40=1 41=1610049406925 54=1 55=NOK 58=PENDING CANCEL 59=0 60=20210107-19:56:39.027 150=6 151=2000 167=CS 10=115
2021-01-08 03:56:55,643 : R << 8=FIX.4.2 9=242 35=8 34=6 49=VTUAT 52=20210107-19:56:56.100 56=TWUAT 6=3.9902 11=1610049411299 14=700 15=USD 17=3228350 20=0 31=0 32=0 37=BV12437785 38=2700 39=4 40=1 41=1610049406925 54=1 55=NOK 58=CANCELLED 59=0 60=20210107-19:56:39.027 150=4 151=0 167=CS 10=119

[Test 16 : Partial fill, cancel req, partial and cancel (2,800)]
2021-01-08 04:03:25,972 : S >> 8=FIX.4.2 9=141 35=D 34=2 49=TWUAT 52=20210107-20:03:25.000 56=VTUAT 1=TRYIKANG 11=1610049805971 21=1 38=2800 40=1 54=1 55=NOK 59=0 60=20210107-20:03:25.972 10=108
2021-01-08 04:03:28,306 : R << 8=FIX.4.2 9=223 35=8 34=2 49=VTUAT 52=20210107-20:03:28.771 56=TWUAT 6=0 11=1610049805971 14=0 15=USD 17=3228359 20=0 31=0 32=0 37=BV12437818 38=2800 39=A 40=1 54=1 55=NOK 58=PENDING NEW 59=0 60=20210107-20:03:13.283 150=A 151=2800 167=CS 10=000
2021-01-08 04:03:30,386 : R << 8=FIX.4.2 9=220 35=8 34=3 49=VTUAT 52=20210107-20:03:30.849 56=TWUAT 6=0 11=1610049805971 14=0 15=USD 17=3228361 20=0 31=0 32=0 37=BV12437818 38=2800 39=0 40=1 54=1 55=NOK 58=ACCEPTED 59=0 60=20210107-20:03:13.727 150=0 151=2800 167=CS 10=001
2021-01-08 04:03:30,388 : R << 8=FIX.4.2 9=239 35=8 34=4 49=VTUAT 52=20210107-20:03:30.852 56=TWUAT 6=3.995 11=1610049805971 14=700 15=USD 17=3228362 20=0 31=3.995 32=700 37=BV12437818 38=2800 39=1 40=1 54=1 55=NOK 58=PARTIAL 59=0 60=20210107-20:03:13.727 76=GNSS 150=1 151=2100 167=CS 10=058
2021-01-08 04:03:30,390 : S >> 8=FIX.4.2 9=135 35=F 34=3 49=TWUAT 52=20210107-20:03:30.000 56=VTUAT 1=TRYIKANG 11=1610049810390 41=1610049805971 54=1 55=NOK 60=20210107-20:03:30.390 10=173 
2021-01-08 04:03:34,754 : R << 8=FIX.4.2 9=249 35=8 34=5 49=VTUAT 52=20210107-20:03:35.217 56=TWUAT 6=3.995 11=1610049810390 14=700 15=USD 17=3228364 20=0 31=0 32=0 37=BV12437818 38=2800 39=6 40=1 41=1610049805971 54=1 55=NOK 58=PENDING CANCEL 59=0 60=20210107-20:03:18.083 150=6 151=2100 167=CS 10=030
2021-01-08 04:03:34,757 : R << 8=FIX.4.2 9=240 35=8 34=6 49=VTUAT 52=20210107-20:03:35.220 56=TWUAT 6=3.995 11=1610049805971 14=1000 15=USD 17=3228365 20=0 31=3.995 32=300 37=BV12437818 38=2800 39=1 40=1 54=1 55=NOK 58=PARTIAL 59=0 60=20210107-20:03:18.083 76=GNSS 150=1 151=1800 167=CS 10=093
2021-01-08 04:03:34,759 : R << 8=FIX.4.2 9=242 35=8 34=7 49=VTUAT 52=20210107-20:03:35.222 56=TWUAT 6=3.995 11=1610049810390 14=1000 15=USD 17=3228366 20=0 31=0 32=0 37=BV12437818 38=2800 39=4 40=1 41=1610049805971 54=1 55=NOK 58=CANCELLED 59=0 60=20210107-20:03:18.097 150=4 151=0 167=CS 10=095

[Test 17 : Partial, C/R, and fill (3,100)]
2021-01-08 04:08:34,718 : S >> 8=FIX.4.2 9=141 35=D 34=2 49=TWUAT 52=20210107-20:08:34.000 56=VTUAT 1=TRYIKANG 11=1610050114717 21=1 38=3100 40=1 54=1 55=NOK 59=0 60=20210107-20:08:34.718 10=093
2021-01-08 04:08:37,025 : R << 8=FIX.4.2 9=223 35=8 34=2 49=VTUAT 52=20210107-20:08:37.493 56=TWUAT 6=0 11=1610050114717 14=0 15=USD 17=3228371 20=0 31=0 32=0 37=BV12437839 38=3100 39=A 40=1 54=1 55=NOK 58=PENDING NEW 59=0 60=20210107-20:08:22.003 150=A 151=3100 167=CS 10=225
2021-01-08 04:08:39,281 : R << 8=FIX.4.2 9=220 35=8 34=3 49=VTUAT 52=20210107-20:08:39.750 56=TWUAT 6=0 11=1610050114717 14=0 15=USD 17=3228373 20=0 31=0 32=0 37=BV12437839 38=3100 39=0 40=1 54=1 55=NOK 58=ACCEPTED 59=0 60=20210107-20:08:22.443 150=0 151=3100 167=CS 10=239
2021-01-08 04:08:39,283 : R << 8=FIX.4.2 9=239 35=8 34=4 49=VTUAT 52=20210107-20:08:39.752 56=TWUAT 6=3.995 11=1610050114717 14=700 15=USD 17=3228374 20=0 31=3.995 32=700 37=BV12437839 38=3100 39=1 40=1 54=1 55=NOK 58=PARTIAL 59=0 60=20210107-20:08:22.447 76=GNSS 150=1 151=2400 167=CS 10=061
2021-01-08 04:08:39,285 : S >> 8=FIX.4.2 9=158 35=G 34=3 49=TWUAT 52=20210107-20:08:39.000 56=VTUAT 1=TRYIKANG 11=1610050119285 18=G 21=1 38=3100 40=1 41=1610050114717 54=1 55=NOK 60=20210107-20:08:39.285 10=190
2021-01-08 04:08:43,717 : R << 8=FIX.4.2 9=255 35=8 34=5 49=VTUAT 52=20210107-20:08:44.185 56=TWUAT 6=3.995 11=1610050119285 14=700 15=USD 17=3228377 18=G 20=0 31=0 32=0 37=BV12437839 38=3100 39=E 40=1 41=1610050114717 54=1 55=NOK 58=PENDING REPLACE 59=0 60=20210107-20:08:27.010 150=E 151=2400 167=CS 10=113
2021-01-08 04:08:43,719 : R << 8=FIX.4.2 9=257 35=8 34=6 49=VTUAT 52=20210107-20:08:44.187 56=TWUAT 6=3.995 11=1610050119285 14=700 15=USD 17=3228378 18=G 20=0 31=0 32=0 37=BV12437839 38=3100 39=5 40=1 41=1610050114717 54=1 55=NOK 58=Comment: REPLACED 59=0 60=20210107-20:08:27.027 150=5 151=2400 167=CS 10=171
2021-01-08 04:08:43,721 : R << 8=FIX.4.2 9=242 35=8 34=7 49=VTUAT 52=20210107-20:08:44.190 56=TWUAT 6=3.995 11=1610050119285 14=3100 15=USD 17=3228379 18=G 20=0 31=3.995 32=2400 37=BV12437839 38=3100 39=2 40=1 54=1 55=NOK 58=FILLED 59=0 60=20210107-20:08:27.030 76=GNSS 150=2 151=0 167=CS 10=142