[Buy AAPL USD 200]
2021-03-10 13:12:21,948 : S >> 8=FIX.4.2 9=149 35=D 34=123 49=TWUAT 52=20210310-05:12:21.000 56=VTUAT 1=TRYIKANG 11=1615353141947 21=1 38=0 40=1 54=1 55=AAPL 59=0 60=20210310-05:12:21.948 152=200 10=212
2021-03-10 13:12:24,012 : R << 8=FIX.4.2 9=239 35=8 34=1143 49=VTUAT 52=20210310-05:12:25.301 56=TWUAT 6=0 11=1615353141947 14=0 15=USD 17=3268256 20=0 31=0 32=0 37=BV12482568 38=1.65166 39=A 40=1 54=1 55=AAPL 58=PENDING NEW 59=0 60=20210310-05:12:15.113 150=A 151=1.65166 152=0 167=CS 10=255
2021-03-10 13:12:25,848 : R << 8=FIX.4.2 9=236 35=8 34=1144 49=VTUAT 52=20210310-05:12:27.138 56=TWUAT 6=0 11=1615353141947 14=0 15=USD 17=3268258 20=0 31=0 32=0 37=BV12482568 38=1.65166 39=0 40=1 54=1 55=AAPL 58=ACCEPTED 59=0 60=20210310-05:12:15.520 150=0 151=1.65166 152=0 167=CS 10=019
2021-03-10 13:12:25,849 : R << 8=FIX.4.2 9=260 35=8 34=1145 49=VTUAT 52=20210310-05:12:27.140 56=TWUAT 6=121.085 11=1615353141947 14=1.65166 15=USD 17=3268259 20=0 31=121.085 32=1.65166 37=BV12482568 38=1.65166 39=2 40=1 54=1 55=AAPL 58=FILLED 59=0 60=20210310-05:12:15.520 76=GNSS 150=2 151=0 152=0 167=CS 10=001

[Buy GM USD 200.35]
2021-03-10 13:16:21,755 : S >> 8=FIX.4.2 9=148 35=D 34=2 49=TWUAT 52=20210310-05:16:21.000 56=VTUAT 1=TRYIKANG 11=1615353381754 21=1 38=0 40=1 54=1 55=GM 59=0 60=20210310-05:16:21.754 152=200.35 10=128
2021-03-10 13:16:23,824 : R << 8=FIX.4.2 9=234 35=8 34=2 49=VTUAT 52=20210310-05:16:25.106 56=TWUAT 6=0 11=1615353381754 14=0 15=USD 17=3268276 20=0 31=0 32=0 37=BV12482608 38=3.66606 39=A 40=1 54=1 55=GM 58=PENDING NEW 59=0 60=20210310-05:16:14.897 150=A 151=3.66606 152=0 167=CS 10=249
2021-03-10 13:16:25,673 : R << 8=FIX.4.2 9=231 35=8 34=3 49=VTUAT 52=20210310-05:16:26.956 56=TWUAT 6=0 11=1615353381754 14=0 15=USD 17=3268278 20=0 31=0 32=0 37=BV12482608 38=3.66606 39=0 40=1 54=1 55=GM 58=ACCEPTED 59=0 60=20210310-05:16:15.297 150=0 151=3.66606 152=0 167=CS 10=010
2021-03-10 13:16:25,676 : R << 8=FIX.4.2 9=251 35=8 34=4 49=VTUAT 52=20210310-05:16:26.958 56=TWUAT 6=54.65 11=1615353381754 14=3.66606 15=USD 17=3268279 20=0 31=54.65 32=3.66606 37=BV12482608 38=3.66606 39=2 40=1 54=1 55=GM 58=FILLED 59=0 60=20210310-05:16:15.300 76=GNSS 150=2 151=0 152=0 167=CS 10=063


2021-03-10 13:18:35,883 : S >> 8=FIX.4.2 9=145 35=D 34=2 49=TWUAT 52=20210310-05:18:35.000 56=VTUAT 1=TRYIKANG 11=1615353515883 21=1 38=0 40=1 54=1 55=GM 59=0 60=20210310-05:18:35.883 152=200 10=250
2021-03-10 13:18:37,982 : R << 8=FIX.4.2 9=234 35=8 34=2 49=VTUAT 52=20210310-05:18:39.280 56=TWUAT 6=0 11=1615353515883 14=0 15=USD 17=3268280 20=0 31=0 32=0 37=BV12482612 38=3.65965 39=A 40=1 54=1 55=GM 58=PENDING NEW 59=0 60=20210310-05:18:29.040 150=A 151=3.65965 152=0 167=CS 10=253
2021-03-10 13:18:39,831 : R << 8=FIX.4.2 9=231 35=8 34=3 49=VTUAT 52=20210310-05:18:41.129 56=TWUAT 6=0 11=1615353515883 14=0 15=USD 17=3268282 20=0 31=0 32=0 37=BV12482612 38=3.65965 39=0 40=1 54=1 55=GM 58=ACCEPTED 59=0 60=20210310-05:18:29.430 150=0 151=3.65965 152=0 167=CS 10=003
2021-03-10 13:18:39,833 : R << 8=FIX.4.2 9=251 35=8 34=4 49=VTUAT 52=20210310-05:18:41.132 56=TWUAT 6=54.65 11=1615353515883 14=3.65965 15=USD 17=3268283 20=0 31=54.65 32=3.65965 37=BV12482612 38=3.65965 39=2 40=1 54=1 55=GM 58=FILLED 59=0 60=20210310-05:18:29.433 76=GNSS 150=2 151=0 152=0 167=CS 10=073

[Test 4 : No action (2,000)]
2021-01-08 01:33:23,044 : S >> 8=FIX.4.2 9=141 35=D 34=2 49=TWUAT 52=20210107-17:33:23.000 56=VTUAT 1=TRYIKANG 11=1610040803044 21=1 38=2000 40=1 54=1 55=NOK 59=0 60=20210107-17:33:23.044 10=084
2021-01-08 01:33:25,386 : R << 8=FIX.4.2 9=223 35=8 34=2 49=VTUAT 52=20210107-17:33:25.740 56=TWUAT 6=0 11=1610040803044 14=0 15=USD 17=3228182 20=0 31=0 32=0 37=BV12437467 38=2000 39=A 40=1 54=1 55=NOK 58=PENDING NEW 59=0 60=20210107-17:33:10.537 150=A 151=2000 167=CS 10=224
2021-01-08 01:33:27,415 : R << 8=FIX.4.2 9=220 35=8 34=3 49=VTUAT 52=20210107-17:33:27.769 56=TWUAT 6=0 11=1610040803044 14=0 15=USD 17=3228184 20=0 31=0 32=0 37=BV12437467 38=2000 39=0 40=1 54=1 55=NOK 58=ACCEPTED 59=0 60=20210107-17:33:11.010 150=0 151=2000 167=CS 10=232
2021-01-08 01:33:27,416 : S >> 8=FIX.4.2 9=135 35=F 34=3 49=TWUAT 52=20210107-17:33:27.000 56=VTUAT 1=TRYIKANG 11=1610040807416 41=1610040803044 54=1 55=NOK 60=20210107-17:33:27.416 10=178
2021-01-08 01:33:31,745 : R << 8=FIX.4.2 9=243 35=8 34=4 49=VTUAT 52=20210107-17:33:32.099 56=TWUAT 6=0 11=1610040807416 14=0 15=USD 17=3228186 20=0 31=0 32=0 37=BV12437467 38=2000 39=6 40=1 41=1610040803044 54=1 55=NOK 58=PENDING CANCEL 59=0 60=20210107-17:33:15.313 150=6 151=2000 167=CS 10=201
2021-01-08 01:33:31,748 : R << 8=FIX.4.2 9=235 35=8 34=5 49=VTUAT 52=20210107-17:33:32.102 56=TWUAT 6=0 11=1610040807416 14=0 15=USD 17=3228187 20=0 31=0 32=0 37=BV12437467 38=2000 39=4 40=1 41=1610040803044 54=1 55=NOK 58=CANCELLED 59=0 60=20210107-17:33:15.313 150=4 151=0 167=CS 10=215

[Test 4cr : No action (2,000)]
2021-01-08 11:34:46,975 : S >> 8=FIX.4.2 9=141 35=D 34=4 49=TWUAT 52=20210108-03:34:46.000 56=VTUAT 1=TRYIKANG 11=1610076886975 21=1 38=2000 40=1 54=1 55=NOK 59=0 60=20210108-03:34:46.975 10=136
2021-01-08 11:34:49,252 : R << 8=FIX.4.2 9=223 35=8 34=7 49=VTUAT 52=20210108-03:34:49.620 56=TWUAT 6=0 11=1610076886975 14=0 15=USD 17=3229060 20=0 31=0 32=0 37=BV12438171 38=2000 39=A 40=1 54=1 55=NOK 58=PENDING NEW 59=0 60=20210108-03:34:33.220 150=A 151=2000 167=CS 10=242
2021-01-08 11:34:51,299 : R << 8=FIX.4.2 9=220 35=8 34=8 49=VTUAT 52=20210108-03:34:51.666 56=TWUAT 6=0 11=1610076886975 14=0 15=USD 17=3229062 20=0 31=0 32=0 37=BV12438171 38=2000 39=0 40=1 54=1 55=NOK 58=ACCEPTED 59=0 60=20210108-03:34:33.673 150=0 151=2000 167=CS 10=009
2021-01-08 11:34:51,301 : S >> 8=FIX.4.2 9=158 35=G 34=5 49=TWUAT 52=20210108-03:34:51.000 56=VTUAT 1=TRYIKANG 11=1610076891300 18=G 21=1 38=2000 40=1 41=1610076886975 54=1 55=NOK 60=20210108-03:34:51.300 10=201
2021-01-08 11:34:55,603 : R << 8=FIX.4.2 9=249 35=8 34=9 49=VTUAT 52=20210108-03:34:55.970 56=TWUAT 6=0 11=1610076891300 14=0 15=USD 17=3229065 18=G 20=0 31=0 32=0 37=BV12438171 38=2000 39=E 40=1 41=1610076886975 54=1 55=NOK 58=PENDING REPLACE 59=0 60=20210108-03:34:37.997 150=E 151=2000 167=CS 10=100
2021-01-08 11:34:55,605 : R << 8=FIX.4.2 9=252 35=8 34=10 49=VTUAT 52=20210108-03:34:55.973 56=TWUAT 6=0 11=1610076891300 14=0 15=USD 17=3229066 18=G 20=0 31=0 32=0 37=BV12438171 38=2000 39=5 40=1 41=1610076886975 54=1 55=NOK 58=Comment: REPLACED 59=0 60=20210108-03:34:37.997 150=5 151=2000 167=CS 10=182

[Test 5 : Too late to cancel (2,300)]
2021-01-08 01:43:00,701 : S >> 8=FIX.4.2 9=141 35=D 34=5 49=TWUAT 52=20210107-17:43:00.000 56=VTUAT 1=TRYIKANG 11=1610041380701 21=1 38=2300 40=1 54=1 55=NOK 59=0 60=20210107-17:43:00.701 10=083
2021-01-08 01:43:03,008 : R << 8=FIX.4.2 9=223 35=8 34=8 49=VTUAT 52=20210107-17:43:03.370 56=TWUAT 6=0 11=1610041380701 14=0 15=USD 17=3228198 20=0 31=0 32=0 37=BV12437498 38=2300 39=A 40=1 54=1 55=NOK 58=PENDING NEW 59=0 60=20210107-17:42:48.173 150=A 151=2300 167=CS 10=251
2021-01-08 01:43:05,115 : R << 8=FIX.4.2 9=220 35=8 34=9 49=VTUAT 52=20210107-17:43:05.478 56=TWUAT 6=0 11=1610041380701 14=0 15=USD 17=3228200 20=0 31=0 32=0 37=BV12437498 38=2300 39=0 40=1 54=1 55=NOK 58=ACCEPTED 59=0 60=20210107-17:42:48.623 150=0 151=2300 167=CS 10=252
2021-01-08 01:43:05,117 : S >> 8=FIX.4.2 9=135 35=F 34=6 49=TWUAT 52=20210107-17:43:05.000 56=VTUAT 1=TRYIKANG 11=1610041385116 41=1610041380701 54=1 55=NOK 60=20210107-17:43:05.116 10=172
2021-01-08 01:43:09,430 : R << 8=FIX.4.2 9=244 35=8 34=10 49=VTUAT 52=20210107-17:43:09.792 56=TWUAT 6=0 11=1610041385116 14=0 15=USD 17=3228202 20=0 31=0 32=0 37=BV12437498 38=2300 39=6 40=1 41=1610041380701 54=1 55=NOK 58=PENDING CANCEL 59=0 60=20210107-17:42:53.010 150=6 151=2300 167=CS 10=247
2021-01-08 01:43:28,064 : R << 8=FIX.4.2 9=236 35=8 34=11 49=VTUAT 52=20210107-17:43:09.794 56=TWUAT 6=4.01 11=1610041380701 14=2300 15=USD 17=3228203 20=0 31=4.01 32=2300 37=BV12437498 38=2300 39=2 40=1 54=1 55=NOK 58=FILLED 59=0 60=20210107-17:42:53.013 76=GNSS 150=2 151=0 167=CS 10=069
2021-01-08 01:43:28,068 : R << 8=FIX.4.2 9=163 35=9 34=12 49=VTUAT 52=20210107-17:43:09.796 56=TWUAT 11=1610041385116 37=BV12437498 39=2 41=1610041380701 58=CANCEL REJECTED 60=20210107-17:42:53.030 102=0 434=1 10=040

[Test 7 : Cancel reject (2,500)]
2021-01-08 02:25:19,469 : S >> 8=FIX.4.2 9=141 35=D 34=2 49=TWUAT 52=20210107-18:25:19.000 56=VTUAT 1=TRYIKANG 11=1610043919469 21=1 38=2500 40=1 54=1 55=NOK 59=0 60=20210107-18:25:19.469 10=136
2021-01-08 02:25:21,775 : R << 8=FIX.4.2 9=223 35=8 34=2 49=VTUAT 52=20210107-18:25:22.169 56=TWUAT 6=0 11=1610043919469 14=0 15=USD 17=3228236 20=0 31=0 32=0 37=BV12437569 38=2500 39=A 40=1 54=1 55=NOK 58=PENDING NEW 59=0 60=20210107-18:25:06.890 150=A 151=2500 167=CS 10=016
2021-01-08 02:25:21,777 : S >> 8=FIX.4.2 9=135 35=F 34=3 49=TWUAT 52=20210107-18:25:21.000 56=VTUAT 1=TRYIKANG 11=1610043921776 41=1610043919469 54=1 55=NOK 60=20210107-18:25:21.777 10=211
2021-01-08 02:25:23,845 : R << 8=FIX.4.2 9=220 35=8 34=3 49=VTUAT 52=20210107-18:25:24.237 56=TWUAT 6=0 11=1610043919469 14=0 15=USD 17=3228238 20=0 31=0 32=0 37=BV12437569 38=2500 39=0 40=1 54=1 55=NOK 58=ACCEPTED 59=0 60=20210107-18:25:07.333 150=0 151=2500 167=CS 10=015
2021-01-08 02:25:27,933 : R << 8=FIX.4.2 9=162 35=9 34=4 49=VTUAT 52=20210107-18:25:28.327 56=TWUAT 11=1610043921776 37=BV12437569 39=0 41=1610043919469 58=CANCEL REJECTED 60=20210107-18:25:11.463 102=0 434=1 10=018

[Test 8 : Cancel/replace reject (2,500)]
2021-01-08 03:27:13,113 : S >> 8=FIX.4.2 9=141 35=D 34=2 49=TWUAT 52=20210107-19:27:13.000 56=VTUAT 1=TRYIKANG 11=1610047633112 21=1 38=2500 40=1 54=1 55=NOK 59=0 60=20210107-19:27:13.113 10=098
2021-01-08 03:27:15,384 : R << 8=FIX.4.2 9=223 35=8 34=2 49=VTUAT 52=20210107-19:27:15.821 56=TWUAT 6=0 11=1610047633112 14=0 15=USD 17=3228279 20=0 31=0 32=0 37=BV12437684 38=2500 39=A 40=1 54=1 55=NOK 58=PENDING NEW 59=0 60=20210107-19:27:00.447 150=A 151=2500 167=CS 10=254
2021-01-08 03:27:17,418 : R << 8=FIX.4.2 9=220 35=8 34=3 49=VTUAT 52=20210107-19:27:17.854 56=TWUAT 6=0 11=1610047633112 14=0 15=USD 17=3228281 20=0 31=0 32=0 37=BV12437684 38=2500 39=0 40=1 54=1 55=NOK 58=ACCEPTED 59=0 60=20210107-19:27:00.890 150=0 151=2500 167=CS 10=007
2021-01-08 03:27:17,419 : S >> 8=FIX.4.2 9=158 35=G 34=3 49=TWUAT 52=20210107-19:27:17.000 56=VTUAT 1=TRYIKANG 11=1610047637419 18=G 21=1 38=2500 40=1 41=1610047633112 54=1 55=NOK 60=20210107-19:27:17.419 10=213
2021-01-08 03:27:21,708 : R << 8=FIX.4.2 9=163 35=9 34=4 49=VTUAT 52=20210107-19:27:22.145 56=TWUAT 11=1610047637419 37=BV12437684 39=0 41=1610047633112 58=REPLACE REJECTED 60=20210107-19:27:05.217 102=0 434=2 10=086

[Test 9 : C/R reject, fill (2,550)]
2021-01-08 03:30:23,243 : S >> 8=FIX.4.2 9=141 35=D 34=2 49=TWUAT 52=20210107-19:30:23.000 56=VTUAT 1=TRYIKANG 11=1610047823243 21=1 38=2550 40=1 54=1 55=NOK 59=0 60=20210107-19:30:23.243 10=103
2021-01-08 03:30:25,523 : R << 8=FIX.4.2 9=223 35=8 34=2 49=VTUAT 52=20210107-19:30:25.962 56=TWUAT 6=0 11=1610047823243 14=0 15=USD 17=3228285 20=0 31=0 32=0 37=BV12437697 38=2550 39=A 40=1 54=1 55=NOK 58=PENDING NEW 59=0 60=20210107-19:30:10.563 150=A 151=2550 167=CS 10=010
2021-01-08 03:30:27,706 : R << 8=FIX.4.2 9=220 35=8 34=3 49=VTUAT 52=20210107-19:30:28.146 56=TWUAT 6=0 11=1610047823243 14=0 15=USD 17=3228287 20=0 31=0 32=0 37=BV12437697 38=2550 39=0 40=1 54=1 55=NOK 58=ACCEPTED 59=0 60=20210107-19:30:11.010 150=0 151=2550 167=CS 10=003
2021-01-08 03:30:27,707 : S >> 8=FIX.4.2 9=158 35=G 34=3 49=TWUAT 52=20210107-19:30:27.000 56=VTUAT 1=TRYIKANG 11=1610047827707 18=G 21=1 38=2550 40=1 41=1610047823243 54=1 55=NOK 60=20210107-19:30:27.707 10=215
2021-01-08 03:30:32,257 : R << 8=FIX.4.2 9=244 35=8 34=4 49=VTUAT 52=20210107-19:30:32.697 56=TWUAT 6=0 11=1610047827707 14=0 15=USD 17=3228290 20=0 31=0 32=0 37=BV12437697 38=2550 39=E 40=1 41=1610047823243 54=1 55=NOK 58=PENDING REPLACE 59=0 60=20210107-19:30:15.507 150=E 151=2550 167=CS 10=112
2021-01-08 03:30:32,259 : R << 8=FIX.4.2 9=235 35=8 34=5 49=VTUAT 52=20210107-19:30:32.699 56=TWUAT 6=4.01 11=1610047823243 14=2550 15=USD 17=3228291 20=0 31=4.01 32=2550 37=BV12437697 38=2550 39=2 40=1 54=1 55=NOK 58=FILLED 59=0 60=20210107-19:30:15.510 76=GNSS 150=2 151=0 167=CS 10=058

[Test 10 : Execution cancel (2,600)]
2021-01-08 03:31:32,449 : S >> 8=FIX.4.2 9=141 35=D 34=6 49=TWUAT 52=20210107-19:31:32.000 56=VTUAT 1=TRYIKANG 11=1610047892448 21=1 38=2600 40=1 54=1 55=NOK 59=0 60=20210107-19:31:32.449 10=126
2021-01-08 03:31:34,719 : R << 8=FIX.4.2 9=223 35=8 34=7 49=VTUAT 52=20210107-19:31:35.160 56=TWUAT 6=0 11=1610047892448 14=0 15=USD 17=3228292 20=0 31=0 32=0 37=BV12437700 38=2600 39=A 40=1 54=1 55=NOK 58=PENDING NEW 59=0 60=20210107-19:31:19.773 150=A 151=2600 167=CS 10=008
2021-01-08 03:31:36,797 : R << 8=FIX.4.2 9=220 35=8 34=8 49=VTUAT 52=20210107-19:31:37.238 56=TWUAT 6=0 11=1610047892448 14=0 15=USD 17=3228294 20=0 31=0 32=0 37=BV12437700 38=2600 39=0 40=1 54=1 55=NOK 58=ACCEPTED 59=0 60=20210107-19:31:20.217 150=0 151=2600 167=CS 10=009
2021-01-08 03:31:36,799 : R << 8=FIX.4.2 9=237 35=8 34=9 49=VTUAT 52=20210107-19:31:37.240 56=TWUAT 6=4.01 11=1610047892448 14=700 15=USD 17=3228295 20=0 31=4.01 32=700 37=BV12437700 38=2600 39=1 40=1 54=1 55=NOK 58=PARTIAL 59=0 60=20210107-19:31:20.237 76=GNSS 150=1 151=1900 167=CS 10=192
2021-01-08 03:31:40,341 : R << 8=FIX.4.2 9=227 35=8 34=10 49=VTUAT 52=20210107-19:31:40.782 56=TWUAT 6=0 11=1610047892448 14=0 15=USD 17=3228296 19=3228295 20=1 31=0 32=0 37=BV12437700 38=2600 39=0 40=1 54=1 55=NOK 58=NEW 59=0 60=20210107-19:31:25.237 150=0 151=2600 167=CS 10=009

[Test 11 : Fill cancel (2,640)]
2021-01-08 03:35:20,859 : S >> 8=FIX.4.2 9=142 35=D 34=14 49=TWUAT 52=20210107-19:35:20.000 56=VTUAT 1=TRYIKANG 11=1610048120858 21=1 38=2640 40=1 54=1 55=NOK 59=0 60=20210107-19:35:20.859 10=175
2021-01-08 03:35:23,163 : R << 8=FIX.4.2 9=224 35=8 34=18 49=VTUAT 52=20210107-19:35:23.607 56=TWUAT 6=0 11=1610048120858 14=0 15=USD 17=3228297 20=0 31=0 32=0 37=BV12437716 38=2640 39=A 40=1 54=1 55=NOK 58=PENDING NEW 59=0 60=20210107-19:35:08.173 150=A 151=2640 167=CS 10=072
2021-01-08 03:35:25,207 : R << 8=FIX.4.2 9=221 35=8 34=19 49=VTUAT 52=20210107-19:35:25.651 56=TWUAT 6=0 11=1610048120858 14=0 15=USD 17=3228299 20=0 31=0 32=0 37=BV12437716 38=2640 39=0 40=1 54=1 55=NOK 58=ACCEPTED 59=0 60=20210107-19:35:08.627 150=0 151=2640 167=CS 10=085
2021-01-08 03:35:25,210 : R << 8=FIX.4.2 9=242 35=8 34=20 49=VTUAT 52=20210107-19:35:25.654 56=TWUAT 6=4.015 11=1610048120858 14=1000 15=USD 17=3228300 20=0 31=4.015 32=1000 37=BV12437716 38=2640 39=1 40=1 54=1 55=NOK 58=PARTIAL 59=0 60=20210107-19:35:08.647 76=GNSS 150=1 151=1640 167=CS 10=177
2021-01-08 03:35:25,212 : R << 8=FIX.4.2 9=238 35=8 34=21 49=VTUAT 52=20210107-19:35:25.656 56=TWUAT 6=4.015 11=1610048120858 14=2640 15=USD 17=3228301 20=0 31=4.015 32=1640 37=BV12437716 38=2640 39=2 40=1 54=1 55=NOK 58=FILLED 59=0 60=20210107-19:35:08.647 76=GNSS 150=2 151=0 167=CS 10=217
2021-01-08 03:35:28,722 : R << 8=FIX.4.2 9=238 35=8 34=22 49=VTUAT 52=20210107-19:35:29.165 56=TWUAT 6=4.015 11=1610048120858 14=1000 15=USD 17=3228302 19=3228301 20=1 31=0 32=0 37=BV12437716 38=2640 39=1 40=1 54=1 55=NOK 58=PARTIAL 59=0 60=20210107-19:35:13.643 150=1 151=1640 167=CS 10=128

[Test 12 : Partial, partial, partial, bust, bust, bust (2,644)]
2021-01-08 03:36:40,331 : S >> 8=FIX.4.2 9=142 35=D 34=17 49=TWUAT 52=20210107-19:36:40.000 56=VTUAT 1=TRYIKANG 11=1610048200331 21=1 38=2644 40=1 54=1 55=NOK 59=0 60=20210107-19:36:40.331 10=158
2021-01-08 03:36:42,656 : R << 8=FIX.4.2 9=224 35=8 34=25 49=VTUAT 52=20210107-19:36:43.101 56=TWUAT 6=0 11=1610048200331 14=0 15=USD 17=3228303 20=0 31=0 32=0 37=BV12437728 38=2644 39=A 40=1 54=1 55=NOK 58=PENDING NEW 59=0 60=20210107-19:36:27.653 150=A 151=2644 167=CS 10=051
2021-01-08 03:36:44,747 : R << 8=FIX.4.2 9=221 35=8 34=26 49=VTUAT 52=20210107-19:36:45.184 56=TWUAT 6=0 11=1610048200331 14=0 15=USD 17=3228305 20=0 31=0 32=0 37=BV12437728 38=2644 39=0 40=1 54=1 55=NOK 58=ACCEPTED 59=0 60=20210107-19:36:28.090 150=0 151=2644 167=CS 10=068
2021-01-08 03:36:44,748 : R << 8=FIX.4.2 9=240 35=8 34=27 49=VTUAT 52=20210107-19:36:45.187 56=TWUAT 6=4.015 11=1610048200331 14=100 15=USD 17=3228306 20=0 31=4.015 32=100 37=BV12437728 38=2644 39=1 40=1 54=1 55=NOK 58=PARTIAL 59=0 60=20210107-19:36:28.107 76=GNSS 150=1 151=2544 167=CS 10=086
2021-01-08 03:36:44,750 : R << 8=FIX.4.2 9=240 35=8 34=28 49=VTUAT 52=20210107-19:36:45.189 56=TWUAT 6=4.015 11=1610048200331 14=200 15=USD 17=3228307 20=0 31=4.015 32=100 37=BV12437728 38=2644 39=1 40=1 54=1 55=NOK 58=PARTIAL 59=0 60=20210107-19:36:28.107 76=GNSS 150=1 151=2444 167=CS 10=090
2021-01-08 03:36:44,753 : R << 8=FIX.4.2 9=240 35=8 34=29 49=VTUAT 52=20210107-19:36:45.192 56=TWUAT 6=4.015 11=1610048200331 14=300 15=USD 17=3228308 20=0 31=4.015 32=100 37=BV12437728 38=2644 39=1 40=1 54=1 55=NOK 58=PARTIAL 59=0 60=20210107-19:36:28.107 76=GNSS 150=1 151=2344 167=CS 10=086
2021-01-08 03:36:44,754 : R << 8=FIX.4.2 9=237 35=8 34=30 49=VTUAT 52=20210107-19:36:45.194 56=TWUAT 6=4.015 11=1610048200331 14=200 15=USD 17=3228309 19=3228308 20=1 31=0 32=0 37=BV12437728 38=2644 39=1 40=1 54=1 55=NOK 58=PARTIAL 59=0 60=20210107-19:36:28.107 150=1 151=2444 167=CS 10=091
2021-01-08 03:36:44,755 : R << 8=FIX.4.2 9=237 35=8 34=31 49=VTUAT 52=20210107-19:36:45.196 56=TWUAT 6=4.015 11=1610048200331 14=100 15=USD 17=3228310 19=3228307 20=1 31=0 32=0 37=BV12437728 38=2644 39=1 40=1 54=1 55=NOK 58=PARTIAL 59=0 60=20210107-19:36:28.137 150=1 151=2544 167=CS 10=088
2021-01-08 03:36:44,756 : R << 8=FIX.4.2 9=231 35=8 34=32 49=VTUAT 52=20210107-19:36:45.198 56=TWUAT 6=4.015 11=1610048200331 14=0 15=USD 17=3228311 19=3228306 20=1 31=0 32=0 37=BV12437728 38=2644 39=0 40=1 54=1 55=NOK 58=NEW 59=0 60=20210107-19:36:28.140 150=0 151=2644 167=CS 10=202

[Test 13 : Partial, Fill, Fill correct (2,645)]
2021-01-08 03:39:31,516 : S >> 8=FIX.4.2 9=142 35=D 34=23 49=TWUAT 52=20210107-19:39:31.000 56=VTUAT 1=TRYIKANG 11=1610048371515 21=1 38=2645 40=1 54=1 55=NOK 59=0 60=20210107-19:39:31.516 10=180
2021-01-08 03:39:33,843 : R << 8=FIX.4.2 9=224 35=8 34=38 49=VTUAT 52=20210107-19:39:34.290 56=TWUAT 6=0 11=1610048371515 14=0 15=USD 17=3228312 20=0 31=0 32=0 37=BV12437737 38=2645 39=A 40=1 54=1 55=NOK 58=PENDING NEW 59=0 60=20210107-19:39:18.837 150=A 151=2645 167=CS 10=089
2021-01-08 03:39:35,909 : R << 8=FIX.4.2 9=221 35=8 34=39 49=VTUAT 52=20210107-19:39:36.355 56=TWUAT 6=0 11=1610048371515 14=0 15=USD 17=3228314 20=0 31=0 32=0 37=BV12437737 38=2645 39=0 40=1 54=1 55=NOK 58=ACCEPTED 59=0 60=20210107-19:39:19.293 150=0 151=2645 167=CS 10=098
2021-01-08 03:39:35,910 : R << 8=FIX.4.2 9=242 35=8 34=40 49=VTUAT 52=20210107-19:39:36.357 56=TWUAT 6=4.015 11=1610048371515 14=1000 15=USD 17=3228315 20=0 31=4.015 32=1000 37=BV12437737 38=2645 39=1 40=1 54=1 55=NOK 58=PARTIAL 59=0 60=20210107-19:39:19.297 76=GNSS 150=1 151=1645 167=CS 10=209
2021-01-08 03:39:35,914 : R << 8=FIX.4.2 9=238 35=8 34=41 49=VTUAT 52=20210107-19:39:36.360 56=TWUAT 6=4.015 11=1610048371515 14=2645 15=USD 17=3228316 20=0 31=4.015 32=1645 37=BV12437737 38=2645 39=2 40=1 54=1 55=NOK 58=FILLED 59=0 60=20210107-19:39:19.313 76=GNSS 150=2 151=0 167=CS 10=235
2021-01-08 03:39:35,917 : R << 8=FIX.4.2 9=241 35=8 34=42 49=VTUAT 52=20210107-19:39:36.362 56=TWUAT 6=4.015 11=1610048371515 14=2645 15=USD 17=3228317 19=3228316 20=2 31=4.015 32=1645 37=BV12437737 38=2645 39=2 40=1 54=1 55=NOK 58=FILLED 59=0 60=20210107-19:39:19.313 150=2 151=0 167=CS 10=022

[Test 14 : Fill cancel, correct (2,650)]
2021-01-08 03:43:23,845 : S >> 8=FIX.4.2 9=141 35=D 34=2 49=TWUAT 52=20210107-19:43:23.000 56=VTUAT 1=TRYIKANG 11=1610048603844 21=1 38=2650 40=1 54=1 55=NOK 59=0 60=20210107-19:43:23.845 10=124
2021-01-08 03:43:26,134 : R << 8=FIX.4.2 9=223 35=8 34=2 49=VTUAT 52=20210107-19:43:26.581 56=TWUAT 6=0 11=1610048603844 14=0 15=USD 17=3228326 20=0 31=0 32=0 37=BV12437759 38=2650 39=A 40=1 54=1 55=NOK 58=PENDING NEW 59=0 60=20210107-19:43:11.140 150=A 151=2650 167=CS 10=009
2021-01-08 03:43:28,222 : R << 8=FIX.4.2 9=220 35=8 34=3 49=VTUAT 52=20210107-19:43:28.672 56=TWUAT 6=0 11=1610048603844 14=0 15=USD 17=3228328 20=0 31=0 32=0 37=BV12437759 38=2650 39=0 40=1 54=1 55=NOK 58=ACCEPTED 59=0 60=20210107-19:43:11.593 150=0 151=2650 167=CS 10=032
2021-01-08 03:43:28,224 : R << 8=FIX.4.2 9=239 35=8 34=4 49=VTUAT 52=20210107-19:43:28.674 56=TWUAT 6=4.01 11=1610048603844 14=1000 15=USD 17=3228329 20=0 31=4.01 32=1000 37=BV12437759 38=2650 39=1 40=1 54=1 55=NOK 58=PARTIAL 59=0 60=20210107-19:43:11.597 76=GNSS 150=1 151=1650 167=CS 10=053
2021-01-08 03:43:28,227 : R << 8=FIX.4.2 9=235 35=8 34=5 49=VTUAT 52=20210107-19:43:28.677 56=TWUAT 6=4.01 11=1610048603844 14=2650 15=USD 17=3228330 20=0 31=4.01 32=1650 37=BV12437759 38=2650 39=2 40=1 54=1 55=NOK 58=FILLED 59=0 60=20210107-19:43:11.613 76=GNSS 150=2 151=0 167=CS 10=066
2021-01-08 03:43:31,732 : R << 8=FIX.4.2 9=236 35=8 34=6 49=VTUAT 52=20210107-19:43:32.181 56=TWUAT 6=4.01 11=1610048603844 14=1000 15=USD 17=3228331 19=3228330 20=1 31=0 32=0 37=BV12437759 38=2650 39=1 40=1 54=1 55=NOK 58=PARTIAL 59=0 60=20210107-19:43:16.593 150=1 151=1650 167=CS 10=038
2021-01-08 03:43:33,799 : R << 8=FIX.4.2 9=235 35=8 34=7 49=VTUAT 52=20210107-19:43:34.249 56=TWUAT 6=4.01 11=1610048603844 14=2650 15=USD 17=3228332 20=0 31=4.01 32=1650 37=BV12437759 38=2650 39=2 40=1 54=1 55=NOK 58=FILLED 59=0 60=20210107-19:43:16.757 76=GNSS 150=2 151=0 167=CS 10=076

[Test 15 : Partial fill (2,700)]
2021-01-08 03:56:46,926 : S >> 8=FIX.4.2 9=141 35=D 34=2 49=TWUAT 52=20210107-19:56:46.000 56=VTUAT 1=TRYIKANG 11=1610049406925 21=1 38=2700 40=1 54=1 55=NOK 59=0 60=20210107-19:56:46.925 10=139
2021-01-08 03:56:49,226 : R << 8=FIX.4.2 9=223 35=8 34=2 49=VTUAT 52=20210107-19:56:49.685 56=TWUAT 6=0 11=1610049406925 14=0 15=USD 17=3228344 20=0 31=0 32=0 37=BV12437785 38=2700 39=A 40=1 54=1 55=NOK 58=PENDING NEW 59=0 60=20210107-19:56:34.220 150=A 151=2700 167=CS 10=024
2021-01-08 03:56:51,294 : R << 8=FIX.4.2 9=220 35=8 34=3 49=VTUAT 52=20210107-19:56:51.753 56=TWUAT 6=0 11=1610049406925 14=0 15=USD 17=3228346 20=0 31=0 32=0 37=BV12437785 38=2700 39=0 40=1 54=1 55=NOK 58=ACCEPTED 59=0 60=20210107-19:56:34.660 150=0 151=2700 167=CS 10=029
2021-01-08 03:56:51,297 : R << 8=FIX.4.2 9=241 35=8 34=4 49=VTUAT 52=20210107-19:56:51.755 56=TWUAT 6=3.9902 11=1610049406925 14=700 15=USD 17=3228347 20=0 31=3.9902 32=700 37=BV12437785 38=2700 39=1 40=1 54=1 55=NOK 58=PARTIAL 59=0 60=20210107-19:56:34.660 76=GNSS 150=1 151=2000 167=CS 10=177
2021-01-08 03:56:51,299 : S >> 8=FIX.4.2 9=135 35=F 34=3 49=TWUAT 52=20210107-19:56:51.000 56=VTUAT 1=TRYIKANG 11=1610049411299 41=1610049406925 54=1 55=NOK 60=20210107-19:56:51.299 10=220 
2021-01-08 03:56:55,640 : R << 8=FIX.4.2 9=250 35=8 34=5 49=VTUAT 52=20210107-19:56:56.098 56=TWUAT 6=3.9902 11=1610049411299 14=700 15=USD 17=3228349 20=0 31=0 32=0 37=BV12437785 38=2700 39=6 40=1 41=1610049406925 54=1 55=NOK 58=PENDING CANCEL 59=0 60=20210107-19:56:39.027 150=6 151=2000 167=CS 10=115
2021-01-08 03:56:55,643 : R << 8=FIX.4.2 9=242 35=8 34=6 49=VTUAT 52=20210107-19:56:56.100 56=TWUAT 6=3.9902 11=1610049411299 14=700 15=USD 17=3228350 20=0 31=0 32=0 37=BV12437785 38=2700 39=4 40=1 41=1610049406925 54=1 55=NOK 58=CANCELLED 59=0 60=20210107-19:56:39.027 150=4 151=0 167=CS 10=119

[Test 16 : Partial fill, cancel req, partial and cancel (2,800)]
2021-01-08 04:03:25,972 : S >> 8=FIX.4.2 9=141 35=D 34=2 49=TWUAT 52=20210107-20:03:25.000 56=VTUAT 1=TRYIKANG 11=1610049805971 21=1 38=2800 40=1 54=1 55=NOK 59=0 60=20210107-20:03:25.972 10=108
2021-01-08 04:03:28,306 : R << 8=FIX.4.2 9=223 35=8 34=2 49=VTUAT 52=20210107-20:03:28.771 56=TWUAT 6=0 11=1610049805971 14=0 15=USD 17=3228359 20=0 31=0 32=0 37=BV12437818 38=2800 39=A 40=1 54=1 55=NOK 58=PENDING NEW 59=0 60=20210107-20:03:13.283 150=A 151=2800 167=CS 10=000
2021-01-08 04:03:30,386 : R << 8=FIX.4.2 9=220 35=8 34=3 49=VTUAT 52=20210107-20:03:30.849 56=TWUAT 6=0 11=1610049805971 14=0 15=USD 17=3228361 20=0 31=0 32=0 37=BV12437818 38=2800 39=0 40=1 54=1 55=NOK 58=ACCEPTED 59=0 60=20210107-20:03:13.727 150=0 151=2800 167=CS 10=001
2021-01-08 04:03:30,388 : R << 8=FIX.4.2 9=239 35=8 34=4 49=VTUAT 52=20210107-20:03:30.852 56=TWUAT 6=3.995 11=1610049805971 14=700 15=USD 17=3228362 20=0 31=3.995 32=700 37=BV12437818 38=2800 39=1 40=1 54=1 55=NOK 58=PARTIAL 59=0 60=20210107-20:03:13.727 76=GNSS 150=1 151=2100 167=CS 10=058
2021-01-08 04:03:30,390 : S >> 8=FIX.4.2 9=135 35=F 34=3 49=TWUAT 52=20210107-20:03:30.000 56=VTUAT 1=TRYIKANG 11=1610049810390 41=1610049805971 54=1 55=NOK 60=20210107-20:03:30.390 10=173 
2021-01-08 04:03:34,754 : R << 8=FIX.4.2 9=249 35=8 34=5 49=VTUAT 52=20210107-20:03:35.217 56=TWUAT 6=3.995 11=1610049810390 14=700 15=USD 17=3228364 20=0 31=0 32=0 37=BV12437818 38=2800 39=6 40=1 41=1610049805971 54=1 55=NOK 58=PENDING CANCEL 59=0 60=20210107-20:03:18.083 150=6 151=2100 167=CS 10=030
2021-01-08 04:03:34,757 : R << 8=FIX.4.2 9=240 35=8 34=6 49=VTUAT 52=20210107-20:03:35.220 56=TWUAT 6=3.995 11=1610049805971 14=1000 15=USD 17=3228365 20=0 31=3.995 32=300 37=BV12437818 38=2800 39=1 40=1 54=1 55=NOK 58=PARTIAL 59=0 60=20210107-20:03:18.083 76=GNSS 150=1 151=1800 167=CS 10=093
2021-01-08 04:03:34,759 : R << 8=FIX.4.2 9=242 35=8 34=7 49=VTUAT 52=20210107-20:03:35.222 56=TWUAT 6=3.995 11=1610049810390 14=1000 15=USD 17=3228366 20=0 31=0 32=0 37=BV12437818 38=2800 39=4 40=1 41=1610049805971 54=1 55=NOK 58=CANCELLED 59=0 60=20210107-20:03:18.097 150=4 151=0 167=CS 10=095

[Test 17 : Partial, C/R, and fill (3,100)]
2021-01-08 04:08:34,718 : S >> 8=FIX.4.2 9=141 35=D 34=2 49=TWUAT 52=20210107-20:08:34.000 56=VTUAT 1=TRYIKANG 11=1610050114717 21=1 38=3100 40=1 54=1 55=NOK 59=0 60=20210107-20:08:34.718 10=093
2021-01-08 04:08:37,025 : R << 8=FIX.4.2 9=223 35=8 34=2 49=VTUAT 52=20210107-20:08:37.493 56=TWUAT 6=0 11=1610050114717 14=0 15=USD 17=3228371 20=0 31=0 32=0 37=BV12437839 38=3100 39=A 40=1 54=1 55=NOK 58=PENDING NEW 59=0 60=20210107-20:08:22.003 150=A 151=3100 167=CS 10=225
2021-01-08 04:08:39,281 : R << 8=FIX.4.2 9=220 35=8 34=3 49=VTUAT 52=20210107-20:08:39.750 56=TWUAT 6=0 11=1610050114717 14=0 15=USD 17=3228373 20=0 31=0 32=0 37=BV12437839 38=3100 39=0 40=1 54=1 55=NOK 58=ACCEPTED 59=0 60=20210107-20:08:22.443 150=0 151=3100 167=CS 10=239
2021-01-08 04:08:39,283 : R << 8=FIX.4.2 9=239 35=8 34=4 49=VTUAT 52=20210107-20:08:39.752 56=TWUAT 6=3.995 11=1610050114717 14=700 15=USD 17=3228374 20=0 31=3.995 32=700 37=BV12437839 38=3100 39=1 40=1 54=1 55=NOK 58=PARTIAL 59=0 60=20210107-20:08:22.447 76=GNSS 150=1 151=2400 167=CS 10=061
2021-01-08 04:08:39,285 : S >> 8=FIX.4.2 9=158 35=G 34=3 49=TWUAT 52=20210107-20:08:39.000 56=VTUAT 1=TRYIKANG 11=1610050119285 18=G 21=1 38=3100 40=1 41=1610050114717 54=1 55=NOK 60=20210107-20:08:39.285 10=190
2021-01-08 04:08:43,717 : R << 8=FIX.4.2 9=255 35=8 34=5 49=VTUAT 52=20210107-20:08:44.185 56=TWUAT 6=3.995 11=1610050119285 14=700 15=USD 17=3228377 18=G 20=0 31=0 32=0 37=BV12437839 38=3100 39=E 40=1 41=1610050114717 54=1 55=NOK 58=PENDING REPLACE 59=0 60=20210107-20:08:27.010 150=E 151=2400 167=CS 10=113
2021-01-08 04:08:43,719 : R << 8=FIX.4.2 9=257 35=8 34=6 49=VTUAT 52=20210107-20:08:44.187 56=TWUAT 6=3.995 11=1610050119285 14=700 15=USD 17=3228378 18=G 20=0 31=0 32=0 37=BV12437839 38=3100 39=5 40=1 41=1610050114717 54=1 55=NOK 58=Comment: REPLACED 59=0 60=20210107-20:08:27.027 150=5 151=2400 167=CS 10=171
2021-01-08 04:08:43,721 : R << 8=FIX.4.2 9=242 35=8 34=7 49=VTUAT 52=20210107-20:08:44.190 56=TWUAT 6=3.995 11=1610050119285 14=3100 15=USD 17=3228379 18=G 20=0 31=3.995 32=2400 37=BV12437839 38=3100 39=2 40=1 54=1 55=NOK 58=FILLED 59=0 60=20210107-20:08:27.030 76=GNSS 150=2 151=0 167=CS 10=142

[Test 25 : Partial 1000, Partial 5000, Fill]
2021-03-10 12:22:41,744 : S >> 8=FIX.4.2 9=143 35=D 34=20 49=TWUAT 52=20210310-04:22:41.000 56=VTUAT 1=TRYIKANG 11=1615350161744 21=1 38=90000 40=1 54=1 55=NOK 59=0 60=20210310-04:22:41.744 10=189
2021-03-10 12:22:43,811 : R << 8=FIX.4.2 9=226 35=8 34=30 49=VTUAT 52=20210310-04:22:45.064 56=TWUAT 6=0 11=1615350161744 14=0 15=USD 17=3267237 20=0 31=0 32=0 37=BV12482523 38=90000 39=A 40=1 54=1 55=NOK 58=PENDING NEW 59=0 60=20210310-04:22:34.980 150=A 151=90000 167=CS 10=129
2021-03-10 12:22:45,652 : R << 8=FIX.4.2 9=223 35=8 34=31 49=VTUAT 52=20210310-04:22:46.906 56=TWUAT 6=0 11=1615350161744 14=0 15=USD 17=3267239 20=0 31=0 32=0 37=BV12482523 38=90000 39=0 40=1 54=1 55=NOK 58=ACCEPTED 59=0 60=20210310-04:22:35.383 150=0 151=90000 167=CS 10=141
2021-03-10 12:22:45,654 : R << 8=FIX.4.2 9=242 35=8 34=32 49=VTUAT 52=20210310-04:22:46.908 56=TWUAT 6=3.96 11=1615350161744 14=1000 15=USD 17=3267240 20=0 31=3.96 32=1000 37=BV12482523 38=90000 39=1 40=1 54=1 55=NOK 58=PARTIAL 59=0 60=20210310-04:22:35.387 76=GNSS 150=1 151=89000 167=CS 10=179
2021-03-10 12:22:45,657 : R << 8=FIX.4.2 9=242 35=8 34=33 49=VTUAT 52=20210310-04:22:46.910 56=TWUAT 6=3.96 11=1615350161744 14=6000 15=USD 17=3267241 20=0 31=3.96 32=5000 37=BV12482523 38=90000 39=1 40=1 54=1 55=NOK 58=PARTIAL 59=0 60=20210310-04:22:35.387 76=GNSS 150=1 151=84000 167=CS 10=178
2021-03-10 12:22:45,658 : R << 8=FIX.4.2 9=244 35=8 34=34 49=VTUAT 52=20210310-04:22:46.912 56=TWUAT 6=3.96 11=1615350161744 14=16000 15=USD 17=3267242 20=0 31=3.96 32=10000 37=BV12482523 38=90000 39=1 40=1 54=1 55=NOK 58=PARTIAL 59=0 60=20210310-04:22:35.387 76=GNSS 150=1 151=74000 167=CS 10=020
2021-03-10 12:22:45,664 : R << 8=FIX.4.2 9=239 35=8 34=35 49=VTUAT 52=20210310-04:22:46.914 56=TWUAT 6=3.96 11=1615350161744 14=90000 15=USD 17=3267243 20=0 31=3.96 32=74000 37=BV12482523 38=90000 39=2 40=1 54=1 55=NOK 58=FILLED 59=0 60=20210310-04:22:35.400 76=GNSS 150=2 151=0 167=CS 10=244

[Test 26 : Partial 1000, Partial 5000, Fill]
2021-03-10 12:27:25,574 : S >> 8=FIX.4.2 9=144 35=D 34=30 49=TWUAT 52=20210310-04:27:25.000 56=VTUAT 1=TRYIKANG 11=1615350445573 21=1 38=100000 40=1 54=1 55=NOK 59=0 60=20210310-04:27:25.573 10=250
2021-03-10 12:27:27,660 : R << 8=FIX.4.2 9=228 35=8 34=45 49=VTUAT 52=20210310-04:27:28.919 56=TWUAT 6=0 11=1615350445573 14=0 15=USD 17=3267244 20=0 31=0 32=0 37=BV12482534 38=100000 39=A 40=1 54=1 55=NOK 58=PENDING NEW 59=0 60=20210310-04:27:18.797 150=A 151=100000 167=CS 10=250
2021-03-10 12:27:29,512 : R << 8=FIX.4.2 9=225 35=8 34=46 49=VTUAT 52=20210310-04:27:30.769 56=TWUAT 6=0 11=1615350445573 14=0 15=USD 17=3267246 20=0 31=0 32=0 37=BV12482534 38=100000 39=0 40=1 54=1 55=NOK 58=ACCEPTED 59=0 60=20210310-04:27:19.203 150=0 151=100000 167=CS 10=237
2021-03-10 12:27:29,514 : R << 8=FIX.4.2 9=243 35=8 34=47 49=VTUAT 52=20210310-04:27:30.772 56=TWUAT 6=3.96 11=1615350445573 14=1000 15=USD 17=3267247 20=0 31=3.96 32=1000 37=BV12482534 38=100000 39=1 40=1 54=1 55=NOK 58=PARTIAL 59=0 60=20210310-04:27:19.207 76=GNSS 150=1 151=99000 167=CS 10=236
2021-03-10 12:27:29,518 : R << 8=FIX.4.2 9=243 35=8 34=48 49=VTUAT 52=20210310-04:27:30.774 56=TWUAT 6=3.96 11=1615350445573 14=6000 15=USD 17=3267248 20=0 31=3.96 32=5000 37=BV12482534 38=100000 39=1 40=1 54=1 55=NOK 58=PARTIAL 59=0 60=20210310-04:27:19.207 76=GNSS 150=1 151=94000 167=CS 10=244
2021-03-10 12:27:29,525 : R << 8=FIX.4.2 9=245 35=8 34=49 49=VTUAT 52=20210310-04:27:30.776 56=TWUAT 6=3.96 11=1615350445573 14=16000 15=USD 17=3267249 20=0 31=3.96 32=10000 37=BV12482534 38=100000 39=1 40=1 54=1 55=NOK 58=PARTIAL 59=0 60=20210310-04:27:19.220 76=GNSS 150=1 151=84000 167=CS 10=081
2021-03-10 12:27:29,529 : R << 8=FIX.4.2 9=241 35=8 34=50 49=VTUAT 52=20210310-04:27:30.778 56=TWUAT 6=3.96 11=1615350445573 14=100000 15=USD 17=3267250 20=0 31=3.96 32=84000 37=BV12482534 38=100000 39=2 40=1 54=1 55=NOK 58=FILLED 59=0 60=20210310-04:27:19.220 76=GNSS 150=2 151=0 167=CS 10=077


[Test 27 : Fill in 1000 lots]
2021-03-10 12:30:04,904 : S >> 8=FIX.4.2 9=145 35=D 34=36 49=TWUAT 52=20210310-04:30:04.000 56=VTUAT 1=TRYIKANG 11=1615350604903 21=1 38=1000000 40=1 54=1 55=NOK 59=0 60=20210310-04:30:04.904 10=023
2021-03-10 12:30:06,980 : R << 8=FIX.4.2 9=230 35=8 34=56 49=VTUAT 52=20210310-04:30:08.240 56=TWUAT 6=0 11=1615350604903 14=0 15=USD 17=3267251 20=0 31=0 32=0 37=BV12482547 38=1000000 39=A 40=1 54=1 55=NOK 58=PENDING NEW 59=0 60=20210310-04:29:58.123 150=A 151=1000000 167=CS 10=049
2021-03-10 12:30:12,662 : R << 8=FIX.4.2 9=227 35=8 34=57 49=VTUAT 52=20210310-04:30:13.923 56=TWUAT 6=0 11=1615350604903 14=0 15=USD 17=3267253 20=0 31=0 32=0 37=BV12482547 38=1000000 39=0 40=1 54=1 55=NOK 58=ACCEPTED 59=0 60=20210310-04:29:58.530 150=0 151=1000000 167=CS 10=072
2021-03-10 12:30:12,665 : R << 8=FIX.4.2 9=245 35=8 34=58 49=VTUAT 52=20210310-04:30:13.925 56=TWUAT 6=3.96 11=1615350604903 14=1000 15=USD 17=3267254 20=0 31=3.96 32=1000 37=BV12482547 38=1000000 39=1 40=1 54=1 55=NOK 58=PARTIAL 59=0 60=20210310-04:29:59.937 76=GNSS 150=1 151=999000 167=CS 10=096
2021-03-10 12:30:12,668 : R << 8=FIX.4.2 9=245 35=8 34=59 49=VTUAT 52=20210310-04:30:13.927 56=TWUAT 6=3.96 11=1615350604903 14=2000 15=USD 17=3267255 20=0 31=3.96 32=1000 37=BV12482547 38=1000000 39=1 40=1 54=1 55=NOK 58=PARTIAL 59=0 60=20210310-04:29:59.937 76=GNSS 150=1 151=998000 167=CS 10=100
2021-03-10 12:30:12,677 : R << 8=FIX.4.2 9=245 35=8 34=60 49=VTUAT 52=20210310-04:30:13.929 56=TWUAT 6=3.96 11=1615350604903 14=3000 15=USD 17=3267256 20=0 31=3.96 32=1000 37=BV12482547 38=1000000 39=1 40=1 54=1 55=NOK 58=PARTIAL 59=0 60=20210310-04:29:59.937 76=GNSS 150=1 151=997000 167=CS 10=095
2021-03-10 12:30:12,679 : R << 8=FIX.4.2 9=245 35=8 34=61 49=VTUAT 52=20210310-04:30:13.931 56=TWUAT 6=3.96 11=1615350604903 14=4000 15=USD 17=3267257 20=0 31=3.96 32=1000 37=BV12482547 38=1000000 39=1 40=1 54=1 55=NOK 58=PARTIAL 59=0 60=20210310-04:29:59.953 76=GNSS 150=1 151=996000 167=CS 10=088
2021-03-10 12:30:12,682 : R << 8=FIX.4.2 9=245 35=8 34=62 49=VTUAT 52=20210310-04:30:13.933 56=TWUAT 6=3.96 11=1615350604903 14=5000 15=USD 17=3267258 20=0 31=3.96 32=1000 37=BV12482547 38=1000000 39=1 40=1 54=1 55=NOK 58=PARTIAL 59=0 60=20210310-04:29:59.953 76=GNSS 150=1 151=995000 167=CS 10=092
2021-03-10 12:30:12,692 : R << 8=FIX.4.2 9=245 35=8 34=63 49=VTUAT 52=20210310-04:30:13.935 56=TWUAT 6=3.96 11=1615350604903 14=6000 15=USD 17=3267259 20=0 31=3.96 32=1000 37=BV12482547 38=1000000 39=1 40=1 54=1 55=NOK 58=PARTIAL 59=0 60=20210310-04:29:59.953 76=GNSS 150=1 151=994000 167=CS 10=096
2021-03-10 12:30:12,694 : R << 8=FIX.4.2 9=245 35=8 34=64 49=VTUAT 52=20210310-04:30:13.937 56=TWUAT 6=3.96 11=1615350604903 14=7000 15=USD 17=3267260 20=0 31=3.96 32=1000 37=BV12482547 38=1000000 39=1 40=1 54=1 55=NOK 58=PARTIAL 59=0 60=20210310-04:29:59.953 76=GNSS 150=1 151=993000 167=CS 10=091
2021-03-10 12:30:12,695 : R << 8=FIX.4.2 9=246 35=8 34=65 49=VTUAT 52=20210310-04:30:13.939 56=TWUAT 6=3.96 11=1615350604903 14=38000 15=USD 17=3267291 20=0 31=3.96 32=1000 37=BV12482547 38=1000000 39=1 40=1 54=1 55=NOK 58=PARTIAL 59=0 60=20210310-04:30:00.063 76=GNSS 150=1 151=962000 167=CS 10=117
2021-03-10 12:30:12,696 : R << 8=FIX.4.2 9=246 35=8 34=66 49=VTUAT 52=20210310-04:30:13.941 56=TWUAT 6=3.96 11=1615350604903 14=39000 15=USD 17=3267292 20=0 31=3.96 32=1000 37=BV12482547 38=1000000 39=1 40=1 54=1 55=NOK 58=PARTIAL 59=0 60=20210310-04:30:00.080 76=GNSS 150=1 151=961000 167=CS 10=111
2021-03-10 12:30:12,864 : R << 8=FIX.4.2 9=246 35=8 34=67 49=VTUAT 52=20210310-04:30:13.943 56=TWUAT 6=3.96 11=1615350604903 14=40000 15=USD 17=3267293 20=0 31=3.96 32=1000 37=BV12482547 38=1000000 39=1 40=1 54=1 55=NOK 58=PARTIAL 59=0 60=20210310-04:30:00.080 76=GNSS 150=1 151=960000 167=CS 10=106
2021-03-10 12:30:12,865 : R << 8=FIX.4.2 9=246 35=8 34=68 49=VTUAT 52=20210310-04:30:13.945 56=TWUAT 6=3.96 11=1615350604903 14=41000 15=USD 17=3267294 20=0 31=3.96 32=1000 37=BV12482547 38=1000000 39=1 40=1 54=1 55=NOK 58=PARTIAL 59=0 60=20210310-04:30:00.080 76=GNSS 150=1 151=959000 167=CS 10=119
2021-03-10 12:30:12,868 : R << 8=FIX.4.2 9=246 35=8 34=69 49=VTUAT 52=20210310-04:30:13.947 56=TWUAT 6=3.96 11=1615350604903 14=42000 15=USD 17=3267295 20=0 31=3.96 32=1000 37=BV12482547 38=1000000 39=1 40=1 54=1 55=NOK 58=PARTIAL 59=0 60=20210310-04:30:00.080 76=GNSS 150=1 151=958000 167=CS 10=123
2021-03-10 12:30:12,870 : R << 8=FIX.4.2 9=246 35=8 34=70 49=VTUAT 52=20210310-04:30:13.950 56=TWUAT 6=3.96 11=1615350604903 14=43000 15=USD 17=3267296 20=0 31=3.96 32=1000 37=BV12482547 38=1000000 39=1 40=1 54=1 55=NOK 58=PARTIAL 59=0 60=20210310-04:30:00.097 76=GNSS 150=1 151=957000 167=CS 10=118
2021-03-10 12:30:12,876 : R << 8=FIX.4.2 9=246 35=8 34=71 49=VTUAT 52=20210310-04:30:13.952 56=TWUAT 6=3.96 11=1615350604903 14=44000 15=USD 17=3267297 20=0 31=3.96 32=1000 37=BV12482547 38=1000000 39=1 40=1 54=1 55=NOK 58=PARTIAL 59=0 60=20210310-04:30:00.097 76=GNSS 150=1 151=956000 167=CS 10=122
2021-03-10 12:30:12,878 : R << 8=FIX.4.2 9=246 35=8 34=72 49=VTUAT 52=20210310-04:30:13.954 56=TWUAT 6=3.96 11=1615350604903 14=45000 15=USD 17=3267298 20=0 31=3.96 32=1000 37=BV12482547 38=1000000 39=1 40=1 54=1 55=NOK 58=PARTIAL 59=0 60=20210310-04:30:00.097 76=GNSS 150=1 151=955000 167=CS 10=126
2021-03-10 12:30:12,879 : R << 8=FIX.4.2 9=246 35=8 34=73 49=VTUAT 52=20210310-04:30:13.956 56=TWUAT 6=3.96 11=1615350604903 14=46000 15=USD 17=3267299 20=0 31=3.96 32=1000 37=BV12482547 38=1000000 39=1 40=1 54=1 55=NOK 58=PARTIAL 59=0 60=20210310-04:30:00.097 76=GNSS 150=1 151=954000 167=CS 10=130
2021-03-10 12:30:12,880 : R << 8=FIX.4.2 9=246 35=8 34=74 49=VTUAT 52=20210310-04:30:13.958 56=TWUAT 6=3.96 11=1615350604903 14=47000 15=USD 17=3267300 20=0 31=3.96 32=1000 37=BV12482547 38=1000000 39=1 40=1 54=1 55=NOK 58=PARTIAL 59=0 60=20210310-04:30:00.110 76=GNSS 150=1 151=953000 167=CS 10=102
2021-03-10 12:30:12,882 : R << 8=FIX.4.2 9=246 35=8 34=75 49=VTUAT 52=20210310-04:30:13.960 56=TWUAT 6=3.96 11=1615350604903 14=48000 15=USD 17=3267301 20=0 31=3.96 32=1000 37=BV12482547 38=1000000 39=1 40=1 54=1 55=NOK 58=PARTIAL 59=0 60=20210310-04:30:00.110 76=GNSS 150=1 151=952000 167=CS 10=097
2021-03-10 12:30:12,883 : R << 8=FIX.4.2 9=246 35=8 34=76 49=VTUAT 52=20210310-04:30:13.962 56=TWUAT 6=3.96 11=1615350604903 14=49000 15=USD 17=3267302 20=0 31=3.96 32=1000 37=BV12482547 38=1000000 39=1 40=1 54=1 55=NOK 58=PARTIAL 59=0 60=20210310-04:30:00.110 76=GNSS 150=1 151=951000 167=CS 10=101
2021-03-10 12:30:12,884 : R << 8=FIX.4.2 9=246 35=8 34=77 49=VTUAT 52=20210310-04:30:13.964 56=TWUAT 6=3.96 11=1615350604903 14=50000 15=USD 17=3267303 20=0 31=3.96 32=1000 37=BV12482547 38=1000000 39=1 40=1 54=1 55=NOK 58=PARTIAL 59=0 60=20210310-04:30:00.110 76=GNSS 150=1 151=950000 167=CS 10=096
2021-03-10 12:30:12,887 : R << 8=FIX.4.2 9=246 35=8 34=78 49=VTUAT 52=20210310-04:30:13.966 56=TWUAT 6=3.96 11=1615350604903 14=51000 15=USD 17=3267304 20=0 31=3.96 32=1000 37=BV12482547 38=1000000 39=1 40=1 54=1 55=NOK 58=PARTIAL 59=0 60=20210310-04:30:00.110 76=GNSS 150=1 151=949000 167=CS 10=109
2021-03-10 12:30:12,898 : R << 8=FIX.4.2 9=246 35=8 34=79 49=VTUAT 52=20210310-04:30:13.968 56=TWUAT 6=3.96 11=1615350604903 14=52000 15=USD 17=3267305 20=0 31=3.96 32=1000 37=BV12482547 38=1000000 39=1 40=1 54=1 55=NOK 58=PARTIAL 59=0 60=20210310-04:30:00.127 76=GNSS 150=1 151=948000 167=CS 10=121
2021-03-10 12:30:12,899 : R << 8=FIX.4.2 9=246 35=8 34=80 49=VTUAT 52=20210310-04:30:13.970 56=TWUAT 6=3.96 11=1615350604903 14=53000 15=USD 17=3267306 20=0 31=3.96 32=1000 37=BV12482547 38=1000000 39=1 40=1 54=1 55=NOK 58=PARTIAL 59=0 60=20210310-04:30:00.127 76=GNSS 150=1 151=947000 167=CS 10=107
2021-03-10 12:30:12,902 : R << 8=FIX.4.2 9=246 35=8 34=81 49=VTUAT 52=20210310-04:30:13.971 56=TWUAT 6=3.96 11=1615350604903 14=54000 15=USD 17=3267307 20=0 31=3.96 32=1000 37=BV12482547 38=1000000 39=1 40=1 54=1 55=NOK 58=PARTIAL 59=0 60=20210310-04:30:00.127 76=GNSS 150=1 151=946000 167=CS 10=110
2021-03-10 12:30:12,905 : R << 8=FIX.4.2 9=246 35=8 34=82 49=VTUAT 52=20210310-04:30:13.973 56=TWUAT 6=3.96 11=1615350604903 14=55000 15=USD 17=3267308 20=0 31=3.96 32=1000 37=BV12482547 38=1000000 39=1 40=1 54=1 55=NOK 58=PARTIAL 59=0 60=20210310-04:30:00.127 76=GNSS 150=1 151=945000 167=CS 10=114
2021-03-10 12:30:12,906 : R << 8=FIX.4.2 9=246 35=8 34=83 49=VTUAT 52=20210310-04:30:13.975 56=TWUAT 6=3.96 11=1615350604903 14=56000 15=USD 17=3267309 20=0 31=3.96 32=1000 37=BV12482547 38=1000000 39=1 40=1 54=1 55=NOK 58=PARTIAL 59=0 60=20210310-04:30:00.143 76=GNSS 150=1 151=944000 167=CS 10=116
2021-03-10 12:30:12,907 : R << 8=FIX.4.2 9=246 35=8 34=84 49=VTUAT 52=20210310-04:30:13.976 56=TWUAT 6=3.96 11=1615350604903 14=57000 15=USD 17=3267310 20=0 31=3.96 32=1000 37=BV12482547 38=1000000 39=1 40=1 54=1 55=NOK 58=PARTIAL 59=0 60=20210310-04:30:00.143 76=GNSS 150=1 151=943000 167=CS 10=110
2021-03-10 12:30:12,910 : R << 8=FIX.4.2 9=246 35=8 34=85 49=VTUAT 52=20210310-04:30:13.978 56=TWUAT 6=3.96 11=1615350604903 14=75000 15=USD 17=3267328 20=0 31=3.96 32=1000 37=BV12482547 38=1000000 39=1 40=1 54=1 55=NOK 58=PARTIAL 59=0 60=20210310-04:30:00.203 76=GNSS 150=1 151=925000 167=CS 10=119
2021-03-10 12:30:12,911 : R << 8=FIX.4.2 9=246 35=8 34=86 49=VTUAT 52=20210310-04:30:13.980 56=TWUAT 6=3.96 11=1615350604903 14=76000 15=USD 17=3267329 20=0 31=3.96 32=1000 37=BV12482547 38=1000000 39=1 40=1 54=1 55=NOK 58=PARTIAL 59=0 60=20210310-04:30:00.220 76=GNSS 150=1 151=924000 167=CS 10=113
2021-03-10 12:30:12,912 : R << 8=FIX.4.2 9=246 35=8 34=87 49=VTUAT 52=20210310-04:30:13.982 56=TWUAT 6=3.96 11=1615350604903 14=77000 15=USD 17=3267330 20=0 31=3.96 32=1000 37=BV12482547 38=1000000 39=1 40=1 54=1 55=NOK 58=PARTIAL 59=0 60=20210310-04:30:00.220 76=GNSS 150=1 151=923000 167=CS 10=108
2021-03-10 12:30:12,913 : R << 8=FIX.4.2 9=246 35=8 34=88 49=VTUAT 52=20210310-04:30:13.984 56=TWUAT 6=3.96 11=1615350604903 14=78000 15=USD 17=3267331 20=0 31=3.96 32=1000 37=BV12482547 38=1000000 39=1 40=1 54=1 55=NOK 58=PARTIAL 59=0 60=20210310-04:30:00.220 76=GNSS 150=1 151=922000 167=CS 10=112
2021-03-10 12:30:12,915 : R << 8=FIX.4.2 9=246 35=8 34=89 49=VTUAT 52=20210310-04:30:13.986 56=TWUAT 6=3.96 11=1615350604903 14=79000 15=USD 17=3267332 20=0 31=3.96 32=1000 37=BV12482547 38=1000000 39=1 40=1 54=1 55=NOK 58=PARTIAL 59=0 60=20210310-04:30:00.220 76=GNSS 150=1 151=921000 167=CS 10=116
2021-03-10 12:30:12,916 : R << 8=FIX.4.2 9=246 35=8 34=90 49=VTUAT 52=20210310-04:30:13.988 56=TWUAT 6=3.96 11=1615350604903 14=80000 15=USD 17=3267333 20=0 31=3.96 32=1000 37=BV12482547 38=1000000 39=1 40=1 54=1 55=NOK 58=PARTIAL 59=0 60=20210310-04:30:00.237 76=GNSS 150=1 151=920000 167=CS 10=110
2021-03-10 12:30:12,918 : R << 8=FIX.4.2 9=246 35=8 34=91 49=VTUAT 52=20210310-04:30:13.990 56=TWUAT 6=3.96 11=1615350604903 14=81000 15=USD 17=3267334 20=0 31=3.96 32=1000 37=BV12482547 38=1000000 39=1 40=1 54=1 55=NOK 58=PARTIAL 59=0 60=20210310-04:30:00.237 76=GNSS 150=1 151=919000 167=CS 10=114
2021-03-10 12:30:12,924 : R << 8=FIX.4.2 9=246 35=8 34=92 49=VTUAT 52=20210310-04:30:13.991 56=TWUAT 6=3.96 11=1615350604903 14=82000 15=USD 17=3267335 20=0 31=3.96 32=1000 37=BV12482547 38=1000000 39=1 40=1 54=1 55=NOK 58=PARTIAL 59=0 60=20210310-04:30:00.237 76=GNSS 150=1 151=918000 167=CS 10=117
2021-03-10 12:30:12,927 : R << 8=FIX.4.2 9=246 35=8 34=93 49=VTUAT 52=20210310-04:30:13.993 56=TWUAT 6=3.96 11=1615350604903 14=83000 15=USD 17=3267336 20=0 31=3.96 32=1000 37=BV12482547 38=1000000 39=1 40=1 54=1 55=NOK 58=PARTIAL 59=0 60=20210310-04:30:00.237 76=GNSS 150=1 151=917000 167=CS 10=121
2021-03-10 12:30:12,929 : R << 8=FIX.4.2 9=246 35=8 34=94 49=VTUAT 52=20210310-04:30:13.994 56=TWUAT 6=3.96 11=1615350604903 14=84000 15=USD 17=3267337 20=0 31=3.96 32=1000 37=BV12482547 38=1000000 39=1 40=1 54=1 55=NOK 58=PARTIAL 59=0 60=20210310-04:30:00.237 76=GNSS 150=1 151=916000 167=CS 10=124
2021-03-10 12:30:12,931 : R << 8=FIX.4.2 9=246 35=8 34=95 49=VTUAT 52=20210310-04:30:13.996 56=TWUAT 6=3.96 11=1615350604903 14=85000 15=USD 17=3267338 20=0 31=3.96 32=1000 37=BV12482547 38=1000000 39=1 40=1 54=1 55=NOK 58=PARTIAL 59=0 60=20210310-04:30:00.250 76=GNSS 150=1 151=915000 167=CS 10=123
2021-03-10 12:30:12,932 : R << 8=FIX.4.2 9=246 35=8 34=96 49=VTUAT 52=20210310-04:30:13.998 56=TWUAT 6=3.96 11=1615350604903 14=86000 15=USD 17=3267339 20=0 31=3.96 32=1000 37=BV12482547 38=1000000 39=1 40=1 54=1 55=NOK 58=PARTIAL 59=0 60=20210310-04:30:00.250 76=GNSS 150=1 151=914000 167=CS 10=127
2021-03-10 12:30:12,934 : R << 8=FIX.4.2 9=246 35=8 34=97 49=VTUAT 52=20210310-04:30:13.999 56=TWUAT 6=3.96 11=1615350604903 14=87000 15=USD 17=3267340 20=0 31=3.96 32=1000 37=BV12482547 38=1000000 39=1 40=1 54=1 55=NOK 58=PARTIAL 59=0 60=20210310-04:30:00.250 76=GNSS 150=1 151=913000 167=CS 10=121
2021-03-10 12:30:12,949 : R << 8=FIX.4.2 9=246 35=8 34=98 49=VTUAT 52=20210310-04:30:14.001 56=TWUAT 6=3.96 11=1615350604903 14=88000 15=USD 17=3267341 20=0 31=3.96 32=1000 37=BV12482547 38=1000000 39=1 40=1 54=1 55=NOK 58=PARTIAL 59=0 60=20210310-04:30:00.250 76=GNSS 150=1 151=912000 167=CS 10=098
2021-03-10 12:30:12,951 : R << 8=FIX.4.2 9=247 35=8 34=99 49=VTUAT 52=20210310-04:30:14.003 56=TWUAT 6=3.96 11=1615350604903 14=101000 15=USD 17=3267354 20=0 31=3.96 32=1000 37=BV12482547 38=1000000 39=1 40=1 54=1 55=NOK 58=PARTIAL 59=0 60=20210310-04:30:00.297 76=GNSS 150=1 151=899000 167=CS 10=165
2021-03-10 12:30:12,954 : R << 8=FIX.4.2 9=248 35=8 34=100 49=VTUAT 52=20210310-04:30:14.004 56=TWUAT 6=3.96 11=1615350604903 14=102000 15=USD 17=3267355 20=0 31=3.96 32=1000 37=BV12482547 38=1000000 39=1 40=1 54=1 55=NOK 58=PARTIAL 59=0 60=20210310-04:30:00.313 76=GNSS 150=1 151=898000 167=CS 10=188
2021-03-10 12:30:12,963 : R << 8=FIX.4.2 9=248 35=8 34=101 49=VTUAT 52=20210310-04:30:14.006 56=TWUAT 6=3.96 11=1615350604903 14=103000 15=USD 17=3267356 20=0 31=3.96 32=1000 37=BV12482547 38=1000000 39=1 40=1 54=1 55=NOK 58=PARTIAL 59=0 60=20210310-04:30:00.313 76=GNSS 150=1 151=897000 167=CS 10=192
2021-03-10 12:30:12,965 : R << 8=FIX.4.2 9=248 35=8 34=102 49=VTUAT 52=20210310-04:30:14.008 56=TWUAT 6=3.96 11=1615350604903 14=104000 15=USD 17=3267357 20=0 31=3.96 32=1000 37=BV12482547 38=1000000 39=1 40=1 54=1 55=NOK 58=PARTIAL 59=0 60=20210310-04:30:00.313 76=GNSS 150=1 151=896000 167=CS 10=196
2021-03-10 12:30:12,969 : R << 8=FIX.4.2 9=248 35=8 34=103 49=VTUAT 52=20210310-04:30:14.010 56=TWUAT 6=3.96 11=1615350604903 14=105000 15=USD 17=3267358 20=0 31=3.96 32=1000 37=BV12482547 38=1000000 39=1 40=1 54=1 55=NOK 58=PARTIAL 59=0 60=20210310-04:30:00.313 76=GNSS 150=1 151=895000 167=CS 10=191
2021-03-10 12:30:12,976 : R << 8=FIX.4.2 9=248 35=8 34=104 49=VTUAT 52=20210310-04:30:14.011 56=TWUAT 6=3.96 11=1615350604903 14=106000 15=USD 17=3267359 20=0 31=3.96 32=1000 37=BV12482547 38=1000000 39=1 40=1 54=1 55=NOK 58=PARTIAL 59=0 60=20210310-04:30:00.313 76=GNSS 150=1 151=894000 167=CS 10=194
2021-03-10 12:30:12,979 : R << 8=FIX.4.2 9=248 35=8 34=105 49=VTUAT 52=20210310-04:30:14.013 56=TWUAT 6=3.96 11=1615350604903 14=107000 15=USD 17=3267360 20=0 31=3.96 32=1000 37=BV12482547 38=1000000 39=1 40=1 54=1 55=NOK 58=PARTIAL 59=0 60=20210310-04:30:00.330 76=GNSS 150=1 151=893000 167=CS 10=188
2021-03-10 12:30:12,980 : R << 8=FIX.4.2 9=248 35=8 34=106 49=VTUAT 52=20210310-04:30:14.015 56=TWUAT 6=3.96 11=1615350604903 14=108000 15=USD 17=3267361 20=0 31=3.96 32=1000 37=BV12482547 38=1000000 39=1 40=1 54=1 55=NOK 58=PARTIAL 59=0 60=20210310-04:30:00.330 76=GNSS 150=1 151=892000 167=CS 10=192
2021-03-10 12:30:12,985 : R << 8=FIX.4.2 9=248 35=8 34=107 49=VTUAT 52=20210310-04:30:14.017 56=TWUAT 6=3.96 11=1615350604903 14=109000 15=USD 17=3267362 20=0 31=3.96 32=1000 37=BV12482547 38=1000000 39=1 40=1 54=1 55=NOK 58=PARTIAL 59=0 60=20210310-04:30:00.330 76=GNSS 150=1 151=891000 167=CS 10=196
2021-03-10 12:30:12,992 : R << 8=FIX.4.2 9=248 35=8 34=108 49=VTUAT 52=20210310-04:30:14.018 56=TWUAT 6=3.96 11=1615350604903 14=110000 15=USD 17=3267363 20=0 31=3.96 32=1000 37=BV12482547 38=1000000 39=1 40=1 54=1 55=NOK 58=PARTIAL 59=0 60=20210310-04:30:00.330 76=GNSS 150=1 151=890000 167=CS 10=190
2021-03-10 12:30:12,994 : R << 8=FIX.4.2 9=248 35=8 34=109 49=VTUAT 52=20210310-04:30:14.020 56=TWUAT 6=3.96 11=1615350604903 14=111000 15=USD 17=3267364 20=0 31=3.96 32=1000 37=BV12482547 38=1000000 39=1 40=1 54=1 55=NOK 58=PARTIAL 59=0 60=20210310-04:30:00.347 76=GNSS 150=1 151=889000 167=CS 10=202
2021-03-10 12:30:12,995 : R << 8=FIX.4.2 9=248 35=8 34=110 49=VTUAT 52=20210310-04:30:14.022 56=TWUAT 6=3.96 11=1615350604903 14=112000 15=USD 17=3267365 20=0 31=3.96 32=1000 37=BV12482547 38=1000000 39=1 40=1 54=1 55=NOK 58=PARTIAL 59=0 60=20210310-04:30:00.347 76=GNSS 150=1 151=888000 167=CS 10=197
2021-03-10 12:30:12,996 : R << 8=FIX.4.2 9=248 35=8 34=111 49=VTUAT 52=20210310-04:30:14.024 56=TWUAT 6=3.96 11=1615350604903 14=113000 15=USD 17=3267366 20=0 31=3.96 32=1000 37=BV12482547 38=1000000 39=1 40=1 54=1 55=NOK 58=PARTIAL 59=0 60=20210310-04:30:00.347 76=GNSS 150=1 151=887000 167=CS 10=201
2021-03-10 12:30:12,998 : R << 8=FIX.4.2 9=248 35=8 34=112 49=VTUAT 52=20210310-04:30:14.025 56=TWUAT 6=3.96 11=1615350604903 14=123000 15=USD 17=3267376 20=0 31=3.96 32=1000 37=BV12482547 38=1000000 39=1 40=1 54=1 55=NOK 58=PARTIAL 59=0 60=20210310-04:30:00.377 76=GNSS 150=1 151=877000 167=CS 10=207
2021-03-10 12:30:13,010 : R << 8=FIX.4.2 9=248 35=8 34=113 49=VTUAT 52=20210310-04:30:14.027 56=TWUAT 6=3.96 11=1615350604903 14=124000 15=USD 17=3267377 20=0 31=3.96 32=1000 37=BV12482547 38=1000000 39=1 40=1 54=1 55=NOK 58=PARTIAL 59=0 60=20210310-04:30:00.377 76=GNSS 150=1 151=876000 167=CS 10=211
2021-03-10 12:30:13,013 : R << 8=FIX.4.2 9=248 35=8 34=114 49=VTUAT 52=20210310-04:30:14.029 56=TWUAT 6=3.96 11=1615350604903 14=125000 15=USD 17=3267378 20=0 31=3.96 32=1000 37=BV12482547 38=1000000 39=1 40=1 54=1 55=NOK 58=PARTIAL 59=0 60=20210310-04:30:00.377 76=GNSS 150=1 151=875000 167=CS 10=215
2021-03-10 12:30:13,019 : R << 8=FIX.4.2 9=248 35=8 34=115 49=VTUAT 52=20210310-04:30:14.031 56=TWUAT 6=3.96 11=1615350604903 14=126000 15=USD 17=3267379 20=0 31=3.96 32=1000 37=BV12482547 38=1000000 39=1 40=1 54=1 55=NOK 58=PARTIAL 59=0 60=20210310-04:30:00.393 76=GNSS 150=1 151=874000 167=CS 10=208
2021-03-10 12:30:13,021 : R << 8=FIX.4.2 9=248 35=8 34=116 49=VTUAT 52=20210310-04:30:14.032 56=TWUAT 6=3.96 11=1615350604903 14=127000 15=USD 17=3267380 20=0 31=3.96 32=1000 37=BV12482547 38=1000000 39=1 40=1 54=1 55=NOK 58=PARTIAL 59=0 60=20210310-04:30:00.393 76=GNSS 150=1 151=873000 167=CS 10=202
2021-03-10 12:30:13,030 : R << 8=FIX.4.2 9=248 35=8 34=117 49=VTUAT 52=20210310-04:30:14.034 56=TWUAT 6=3.96 11=1615350604903 14=128000 15=USD 17=3267381 20=0 31=3.96 32=1000 37=BV12482547 38=1000000 39=1 40=1 54=1 55=NOK 58=PARTIAL 59=0 60=20210310-04:30:00.393 76=GNSS 150=1 151=872000 167=CS 10=206
2021-03-10 12:30:13,035 : R << 8=FIX.4.2 9=248 35=8 34=118 49=VTUAT 52=20210310-04:30:14.036 56=TWUAT 6=3.96 11=1615350604903 14=129000 15=USD 17=3267382 20=0 31=3.96 32=1000 37=BV12482547 38=1000000 39=1 40=1 54=1 55=NOK 58=PARTIAL 59=0 60=20210310-04:30:00.393 76=GNSS 150=1 151=871000 167=CS 10=210
2021-03-10 12:30:13,042 : R << 8=FIX.4.2 9=248 35=8 34=119 49=VTUAT 52=20210310-04:30:14.038 56=TWUAT 6=3.96 11=1615350604903 14=130000 15=USD 17=3267383 20=0 31=3.96 32=1000 37=BV12482547 38=1000000 39=1 40=1 54=1 55=NOK 58=PARTIAL 59=0 60=20210310-04:30:00.393 76=GNSS 150=1 151=870000 167=CS 10=205
2021-03-10 12:30:13,048 : R << 8=FIX.4.2 9=248 35=8 34=120 49=VTUAT 52=20210310-04:30:14.040 56=TWUAT 6=3.96 11=1615350604903 14=131000 15=USD 17=3267384 20=0 31=3.96 32=1000 37=BV12482547 38=1000000 39=1 40=1 54=1 55=NOK 58=PARTIAL 59=0 60=20210310-04:30:00.407 76=GNSS 150=1 151=869000 167=CS 10=196
2021-03-10 12:30:13,049 : R << 8=FIX.4.2 9=248 35=8 34=121 49=VTUAT 52=20210310-04:30:14.042 56=TWUAT 6=3.96 11=1615350604903 14=132000 15=USD 17=3267385 20=0 31=3.96 32=1000 37=BV12482547 38=1000000 39=1 40=1 54=1 55=NOK 58=PARTIAL 59=0 60=20210310-04:30:00.407 76=GNSS 150=1 151=868000 167=CS 10=200
2021-03-10 12:30:13,056 : R << 8=FIX.4.2 9=248 35=8 34=122 49=VTUAT 52=20210310-04:30:14.044 56=TWUAT 6=3.96 11=1615350604903 14=133000 15=USD 17=3267386 20=0 31=3.96 32=1000 37=BV12482547 38=1000000 39=1 40=1 54=1 55=NOK 58=PARTIAL 59=0 60=20210310-04:30:00.407 76=GNSS 150=1 151=867000 167=CS 10=204
2021-03-10 12:30:13,059 : R << 8=FIX.4.2 9=248 35=8 34=123 49=VTUAT 52=20210310-04:30:14.046 56=TWUAT 6=3.96 11=1615350604903 14=142000 15=USD 17=3267395 20=0 31=3.96 32=1000 37=BV12482547 38=1000000 39=1 40=1 54=1 55=NOK 58=PARTIAL 59=0 60=20210310-04:30:00.443 76=GNSS 150=1 151=858000 167=CS 10=207
2021-03-10 12:30:13,062 : R << 8=FIX.4.2 9=248 35=8 34=124 49=VTUAT 52=20210310-04:30:14.048 56=TWUAT 6=3.96 11=1615350604903 14=143000 15=USD 17=3267396 20=0 31=3.96 32=1000 37=BV12482547 38=1000000 39=1 40=1 54=1 55=NOK 58=PARTIAL 59=0 60=20210310-04:30:00.443 76=GNSS 150=1 151=857000 167=CS 10=211
2021-03-10 12:30:13,076 : R << 8=FIX.4.2 9=248 35=8 34=125 49=VTUAT 52=20210310-04:30:14.050 56=TWUAT 6=3.96 11=1615350604903 14=144000 15=USD 17=3267397 20=0 31=3.96 32=1000 37=BV12482547 38=1000000 39=1 40=1 54=1 55=NOK 58=PARTIAL 59=0 60=20210310-04:30:00.443 76=GNSS 150=1 151=856000 167=CS 10=206
2021-03-10 12:30:13,080 : R << 8=FIX.4.2 9=248 35=8 34=126 49=VTUAT 52=20210310-04:30:14.052 56=TWUAT 6=3.96 11=1615350604903 14=145000 15=USD 17=3267398 20=0 31=3.96 32=1000 37=BV12482547 38=1000000 39=1 40=1 54=1 55=NOK 58=PARTIAL 59=0 60=20210310-04:30:00.457 76=GNSS 150=1 151=855000 167=CS 10=215
2021-03-10 12:30:13,082 : R << 8=FIX.4.2 9=248 35=8 34=127 49=VTUAT 52=20210310-04:30:14.054 56=TWUAT 6=3.96 11=1615350604903 14=146000 15=USD 17=3267399 20=0 31=3.96 32=1000 37=BV12482547 38=1000000 39=1 40=1 54=1 55=NOK 58=PARTIAL 59=0 60=20210310-04:30:00.457 76=GNSS 150=1 151=854000 167=CS 10=219
2021-03-10 12:30:13,089 : R << 8=FIX.4.2 9=248 35=8 34=128 49=VTUAT 52=20210310-04:30:14.056 56=TWUAT 6=3.96 11=1615350604903 14=147000 15=USD 17=3267400 20=0 31=3.96 32=1000 37=BV12482547 38=1000000 39=1 40=1 54=1 55=NOK 58=PARTIAL 59=0 60=20210310-04:30:00.457 76=GNSS 150=1 151=853000 167=CS 10=205
2021-03-10 12:30:13,090 : R << 8=FIX.4.2 9=248 35=8 34=129 49=VTUAT 52=20210310-04:30:14.058 56=TWUAT 6=3.96 11=1615350604903 14=148000 15=USD 17=3267401 20=0 31=3.96 32=1000 37=BV12482547 38=1000000 39=1 40=1 54=1 55=NOK 58=PARTIAL 59=0 60=20210310-04:30:00.457 76=GNSS 150=1 151=852000 167=CS 10=209
2021-03-10 12:30:13,093 : R << 8=FIX.4.2 9=248 35=8 34=130 49=VTUAT 52=20210310-04:30:14.060 56=TWUAT 6=3.96 11=1615350604903 14=149000 15=USD 17=3267402 20=0 31=3.96 32=1000 37=BV12482547 38=1000000 39=1 40=1 54=1 55=NOK 58=PARTIAL 59=0 60=20210310-04:30:00.457 76=GNSS 150=1 151=851000 167=CS 10=195
2021-03-10 12:30:13,097 : R << 8=FIX.4.2 9=248 35=8 34=131 49=VTUAT 52=20210310-04:30:14.062 56=TWUAT 6=3.96 11=1615350604903 14=150000 15=USD 17=3267403 20=0 31=3.96 32=1000 37=BV12482547 38=1000000 39=1 40=1 54=1 55=NOK 58=PARTIAL 59=0 60=20210310-04:30:00.473 76=GNSS 150=1 151=850000 167=CS 10=188
2021-03-10 12:30:13,103 : R << 8=FIX.4.2 9=248 35=8 34=132 49=VTUAT 52=20210310-04:30:14.064 56=TWUAT 6=3.96 11=1615350604903 14=151000 15=USD 17=3267404 20=0 31=3.96 32=1000 37=BV12482547 38=1000000 39=1 40=1 54=1 55=NOK 58=PARTIAL 59=0 60=20210310-04:30:00.473 76=GNSS 150=1 151=849000 167=CS 10=201
2021-03-10 12:30:13,106 : R << 8=FIX.4.2 9=248 35=8 34=133 49=VTUAT 52=20210310-04:30:14.066 56=TWUAT 6=3.96 11=1615350604903 14=160000 15=USD 17=3267413 20=0 31=3.96 32=1000 37=BV12482547 38=1000000 39=1 40=1 54=1 55=NOK 58=PARTIAL 59=0 60=20210310-04:30:00.507 76=GNSS 150=1 151=840000 167=CS 10=193
2021-03-10 12:30:13,108 : R << 8=FIX.4.2 9=248 35=8 34=134 49=VTUAT 52=20210310-04:30:14.068 56=TWUAT 6=3.96 11=1615350604903 14=161000 15=USD 17=3267414 20=0 31=3.96 32=1000 37=BV12482547 38=1000000 39=1 40=1 54=1 55=NOK 58=PARTIAL 59=0 60=20210310-04:30:00.507 76=GNSS 150=1 151=839000 167=CS 10=206
2021-03-10 12:30:13,111 : R << 8=FIX.4.2 9=248 35=8 34=135 49=VTUAT 52=20210310-04:30:14.070 56=TWUAT 6=3.96 11=1615350604903 14=162000 15=USD 17=3267415 20=0 31=3.96 32=1000 37=BV12482547 38=1000000 39=1 40=1 54=1 55=NOK 58=PARTIAL 59=0 60=20210310-04:30:00.507 76=GNSS 150=1 151=838000 167=CS 10=201
2021-03-10 12:30:13,120 : R << 8=FIX.4.2 9=248 35=8 34=136 49=VTUAT 52=20210310-04:30:14.072 56=TWUAT 6=3.96 11=1615350604903 14=163000 15=USD 17=3267416 20=0 31=3.96 32=1000 37=BV12482547 38=1000000 39=1 40=1 54=1 55=NOK 58=PARTIAL 59=0 60=20210310-04:30:00.520 76=GNSS 150=1 151=837000 167=CS 10=200
2021-03-10 12:30:13,122 : R << 8=FIX.4.2 9=248 35=8 34=137 49=VTUAT 52=20210310-04:30:14.074 56=TWUAT 6=3.96 11=1615350604903 14=164000 15=USD 17=3267417 20=0 31=3.96 32=1000 37=BV12482547 38=1000000 39=1 40=1 54=1 55=NOK 58=PARTIAL 59=0 60=20210310-04:30:00.520 76=GNSS 150=1 151=836000 167=CS 10=204
2021-03-10 12:30:13,125 : R << 8=FIX.4.2 9=248 35=8 34=138 49=VTUAT 52=20210310-04:30:14.076 56=TWUAT 6=3.96 11=1615350604903 14=165000 15=USD 17=3267418 20=0 31=3.96 32=1000 37=BV12482547 38=1000000 39=1 40=1 54=1 55=NOK 58=PARTIAL 59=0 60=20210310-04:30:00.520 76=GNSS 150=1 151=835000 167=CS 10=208
2021-03-10 12:30:13,130 : R << 8=FIX.4.2 9=248 35=8 34=139 49=VTUAT 52=20210310-04:30:14.078 56=TWUAT 6=3.96 11=1615350604903 14=166000 15=USD 17=3267419 20=0 31=3.96 32=1000 37=BV12482547 38=1000000 39=1 40=1 54=1 55=NOK 58=PARTIAL 59=0 60=20210310-04:30:00.520 76=GNSS 150=1 151=834000 167=CS 10=212
2021-03-10 12:30:13,136 : R << 8=FIX.4.2 9=248 35=8 34=140 49=VTUAT 52=20210310-04:30:14.080 56=TWUAT 6=3.96 11=1615350604903 14=167000 15=USD 17=3267420 20=0 31=3.96 32=1000 37=BV12482547 38=1000000 39=1 40=1 54=1 55=NOK 58=PARTIAL 59=0 60=20210310-04:30:00.520 76=GNSS 150=1 151=833000 167=CS 10=189
2021-03-10 12:30:13,137 : R << 8=FIX.4.2 9=248 35=8 34=141 49=VTUAT 52=20210310-04:30:14.082 56=TWUAT 6=3.96 11=1615350604903 14=168000 15=USD 17=3267421 20=0 31=3.96 32=1000 37=BV12482547 38=1000000 39=1 40=1 54=1 55=NOK 58=PARTIAL 59=0 60=20210310-04:30:00.537 76=GNSS 150=1 151=832000 167=CS 10=201
2021-03-10 12:30:13,138 : R << 8=FIX.4.2 9=248 35=8 34=142 49=VTUAT 52=20210310-04:30:14.084 56=TWUAT 6=3.96 11=1615350604903 14=176000 15=USD 17=3267429 20=0 31=3.96 32=1000 37=BV12482547 38=1000000 39=1 40=1 54=1 55=NOK 58=PARTIAL 59=0 60=20210310-04:30:00.550 76=GNSS 150=1 151=824000 167=CS 10=207
2021-03-10 12:30:13,139 : R << 8=FIX.4.2 9=248 35=8 34=143 49=VTUAT 52=20210310-04:30:14.086 56=TWUAT 6=3.96 11=1615350604903 14=177000 15=USD 17=3267430 20=0 31=3.96 32=1000 37=BV12482547 38=1000000 39=1 40=1 54=1 55=NOK 58=PARTIAL 59=0 60=20210310-04:30:00.567 76=GNSS 150=1 151=823000 167=CS 10=210
2021-03-10 12:30:13,140 : R << 8=FIX.4.2 9=248 35=8 34=144 49=VTUAT 52=20210310-04:30:14.088 56=TWUAT 6=3.96 11=1615350604903 14=178000 15=USD 17=3267431 20=0 31=3.96 32=1000 37=BV12482547 38=1000000 39=1 40=1 54=1 55=NOK 58=PARTIAL 59=0 60=20210310-04:30:00.567 76=GNSS 150=1 151=822000 167=CS 10=214
2021-03-10 12:30:13,141 : R << 8=FIX.4.2 9=248 35=8 34=145 49=VTUAT 52=20210310-04:30:14.090 56=TWUAT 6=3.96 11=1615350604903 14=179000 15=USD 17=3267432 20=0 31=3.96 32=1000 37=BV12482547 38=1000000 39=1 40=1 54=1 55=NOK 58=PARTIAL 59=0 60=20210310-04:30:00.567 76=GNSS 150=1 151=821000 167=CS 10=209
2021-03-10 12:30:13,147 : R << 8=FIX.4.2 9=248 35=8 34=146 49=VTUAT 52=20210310-04:30:14.091 56=TWUAT 6=3.96 11=1615350604903 14=180000 15=USD 17=3267433 20=0 31=3.96 32=1000 37=BV12482547 38=1000000 39=1 40=1 54=1 55=NOK 58=PARTIAL 59=0 60=20210310-04:30:00.567 76=GNSS 150=1 151=820000 167=CS 10=203
2021-03-10 12:30:13,153 : R << 8=FIX.4.2 9=248 35=8 34=147 49=VTUAT 52=20210310-04:30:14.093 56=TWUAT 6=3.96 11=1615350604903 14=181000 15=USD 17=3267434 20=0 31=3.96 32=1000 37=BV12482547 38=1000000 39=1 40=1 54=1 55=NOK 58=PARTIAL 59=0 60=20210310-04:30:00.583 76=GNSS 150=1 151=819000 167=CS 10=214
2021-03-10 12:30:13,154 : R << 8=FIX.4.2 9=248 35=8 34=148 49=VTUAT 52=20210310-04:30:14.095 56=TWUAT 6=3.96 11=1615350604903 14=182000 15=USD 17=3267435 20=0 31=3.96 32=1000 37=BV12482547 38=1000000 39=1 40=1 54=1 55=NOK 58=PARTIAL 59=0 60=20210310-04:30:00.583 76=GNSS 150=1 151=818000 167=CS 10=218
2021-03-10 12:30:13,155 : R << 8=FIX.4.2 9=248 35=8 34=149 49=VTUAT 52=20210310-04:30:14.097 56=TWUAT 6=3.96 11=1615350604903 14=183000 15=USD 17=3267436 20=0 31=3.96 32=1000 37=BV12482547 38=1000000 39=1 40=1 54=1 55=NOK 58=PARTIAL 59=0 60=20210310-04:30:00.583 76=GNSS 150=1 151=817000 167=CS 10=222
2021-03-10 12:30:13,156 : R << 8=FIX.4.2 9=248 35=8 34=150 49=VTUAT 52=20210310-04:30:14.099 56=TWUAT 6=3.96 11=1615350604903 14=190000 15=USD 17=3267443 20=0 31=3.96 32=1000 37=BV12482547 38=1000000 39=1 40=1 54=1 55=NOK 58=PARTIAL 59=0 60=20210310-04:30:00.613 76=GNSS 150=1 151=810000 167=CS 10=199
2021-03-10 12:30:13,157 : R << 8=FIX.4.2 9=248 35=8 34=151 49=VTUAT 52=20210310-04:30:14.100 56=TWUAT 6=3.96 11=1615350604903 14=191000 15=USD 17=3267444 20=0 31=3.96 32=1000 37=BV12482547 38=1000000 39=1 40=1 54=1 55=NOK 58=PARTIAL 59=0 60=20210310-04:30:00.613 76=GNSS 150=1 151=809000 167=CS 10=193
2021-03-10 12:30:13,166 : R << 8=FIX.4.2 9=248 35=8 34=152 49=VTUAT 52=20210310-04:30:14.102 56=TWUAT 6=3.96 11=1615350604903 14=192000 15=USD 17=3267445 20=0 31=3.96 32=1000 37=BV12482547 38=1000000 39=1 40=1 54=1 55=NOK 58=PARTIAL 59=0 60=20210310-04:30:00.613 76=GNSS 150=1 151=808000 167=CS 10=197
2021-03-10 12:30:13,167 : R << 8=FIX.4.2 9=248 35=8 34=153 49=VTUAT 52=20210310-04:30:14.104 56=TWUAT 6=3.96 11=1615350604903 14=193000 15=USD 17=3267446 20=0 31=3.96 32=1000 37=BV12482547 38=1000000 39=1 40=1 54=1 55=NOK 58=PARTIAL 59=0 60=20210310-04:30:00.613 76=GNSS 150=1 151=807000 167=CS 10=201
2021-03-10 12:30:13,169 : R << 8=FIX.4.2 9=248 35=8 34=154 49=VTUAT 52=20210310-04:30:14.106 56=TWUAT 6=3.96 11=1615350604903 14=194000 15=USD 17=3267447 20=0 31=3.96 32=1000 37=BV12482547 38=1000000 39=1 40=1 54=1 55=NOK 58=PARTIAL 59=0 60=20210310-04:30:00.630 76=GNSS 150=1 151=806000 167=CS 10=204
2021-03-10 12:30:13,171 : R << 8=FIX.4.2 9=248 35=8 34=155 49=VTUAT 52=20210310-04:30:14.108 56=TWUAT 6=3.96 11=1615350604903 14=195000 15=USD 17=3267448 20=0 31=3.96 32=1000 37=BV12482547 38=1000000 39=1 40=1 54=1 55=NOK 58=PARTIAL 59=0 60=20210310-04:30:00.630 76=GNSS 150=1 151=805000 167=CS 10=208
2021-03-10 12:30:13,175 : R << 8=FIX.4.2 9=248 35=8 34=156 49=VTUAT 52=20210310-04:30:14.110 56=TWUAT 6=3.96 11=1615350604903 14=196000 15=USD 17=3267449 20=0 31=3.96 32=1000 37=BV12482547 38=1000000 39=1 40=1 54=1 55=NOK 58=PARTIAL 59=0 60=20210310-04:30:00.630 76=GNSS 150=1 151=804000 167=CS 10=203
2021-03-10 12:30:13,183 : R << 8=FIX.4.2 9=248 35=8 34=157 49=VTUAT 52=20210310-04:30:14.112 56=TWUAT 6=3.96 11=1615350604903 14=197000 15=USD 17=3267450 20=0 31=3.96 32=1000 37=BV12482547 38=1000000 39=1 40=1 54=1 55=NOK 58=PARTIAL 59=0 60=20210310-04:30:00.630 76=GNSS 150=1 151=803000 167=CS 10=198
2021-03-10 12:30:13,184 : R << 8=FIX.4.2 9=248 35=8 34=158 49=VTUAT 52=20210310-04:30:14.114 56=TWUAT 6=3.96 11=1615350604903 14=204000 15=USD 17=3267457 20=0 31=3.96 32=1000 37=BV12482547 38=1000000 39=1 40=1 54=1 55=NOK 58=PARTIAL 59=0 60=20210310-04:30:00.660 76=GNSS 150=1 151=796000 167=CS 10=211
2021-03-10 12:30:13,185 : R << 8=FIX.4.2 9=248 35=8 34=159 49=VTUAT 52=20210310-04:30:14.115 56=TWUAT 6=3.96 11=1615350604903 14=205000 15=USD 17=3267458 20=0 31=3.96 32=1000 37=BV12482547 38=1000000 39=1 40=1 54=1 55=NOK 58=PARTIAL 59=0 60=20210310-04:30:00.660 76=GNSS 150=1 151=795000 167=CS 10=214
2021-03-10 12:30:13,186 : R << 8=FIX.4.2 9=248 35=8 34=160 49=VTUAT 52=20210310-04:30:14.117 56=TWUAT 6=3.96 11=1615350604903 14=206000 15=USD 17=3267459 20=0 31=3.96 32=1000 37=BV12482547 38=1000000 39=1 40=1 54=1 55=NOK 58=PARTIAL 59=0 60=20210310-04:30:00.660 76=GNSS 150=1 151=794000 167=CS 10=209
2021-03-10 12:30:13,190 : R << 8=FIX.4.2 9=248 35=8 34=161 49=VTUAT 52=20210310-04:30:14.119 56=TWUAT 6=3.96 11=1615350604903 14=207000 15=USD 17=3267460 20=0 31=3.96 32=1000 37=BV12482547 38=1000000 39=1 40=1 54=1 55=NOK 58=PARTIAL 59=0 60=20210310-04:30:00.660 76=GNSS 150=1 151=793000 167=CS 10=204
2021-03-10 12:30:13,193 : R << 8=FIX.4.2 9=248 35=8 34=162 49=VTUAT 52=20210310-04:30:14.121 56=TWUAT 6=3.96 11=1615350604903 14=208000 15=USD 17=3267461 20=0 31=3.96 32=1000 37=BV12482547 38=1000000 39=1 40=1 54=1 55=NOK 58=PARTIAL 59=0 60=20210310-04:30:00.677 76=GNSS 150=1 151=792000 167=CS 10=207
2021-03-10 12:30:13,194 : R << 8=FIX.4.2 9=248 35=8 34=163 49=VTUAT 52=20210310-04:30:14.123 56=TWUAT 6=3.96 11=1615350604903 14=209000 15=USD 17=3267462 20=0 31=3.96 32=1000 37=BV12482547 38=1000000 39=1 40=1 54=1 55=NOK 58=PARTIAL 59=0 60=20210310-04:30:00.677 76=GNSS 150=1 151=791000 167=CS 10=211
2021-03-10 12:30:13,195 : R << 8=FIX.4.2 9=248 35=8 34=164 49=VTUAT 52=20210310-04:30:14.125 56=TWUAT 6=3.96 11=1615350604903 14=210000 15=USD 17=3267463 20=0 31=3.96 32=1000 37=BV12482547 38=1000000 39=1 40=1 54=1 55=NOK 58=PARTIAL 59=0 60=20210310-04:30:00.677 76=GNSS 150=1 151=790000 167=CS 10=206
2021-03-10 12:30:13,197 : R << 8=FIX.4.2 9=248 35=8 34=165 49=VTUAT 52=20210310-04:30:14.127 56=TWUAT 6=3.96 11=1615350604903 14=217000 15=USD 17=3267470 20=0 31=3.96 32=1000 37=BV12482547 38=1000000 39=1 40=1 54=1 55=NOK 58=PARTIAL 59=0 60=20210310-04:30:00.707 76=GNSS 150=1 151=783000 167=CS 10=210
2021-03-10 12:30:13,198 : R << 8=FIX.4.2 9=248 35=8 34=166 49=VTUAT 52=20210310-04:30:14.129 56=TWUAT 6=3.96 11=1615350604903 14=218000 15=USD 17=3267471 20=0 31=3.96 32=1000 37=BV12482547 38=1000000 39=1 40=1 54=1 55=NOK 58=PARTIAL 59=0 60=20210310-04:30:00.707 76=GNSS 150=1 151=782000 167=CS 10=214
2021-03-10 12:30:13,199 : R << 8=FIX.4.2 9=248 35=8 34=167 49=VTUAT 52=20210310-04:30:14.131 56=TWUAT 6=3.96 11=1615350604903 14=219000 15=USD 17=3267472 20=0 31=3.96 32=1000 37=BV12482547 38=1000000 39=1 40=1 54=1 55=NOK 58=PARTIAL 59=0 60=20210310-04:30:00.707 76=GNSS 150=1 151=781000 167=CS 10=209
2021-03-10 12:30:13,201 : R << 8=FIX.4.2 9=248 35=8 34=168 49=VTUAT 52=20210310-04:30:14.133 56=TWUAT 6=3.96 11=1615350604903 14=220000 15=USD 17=3267473 20=0 31=3.96 32=1000 37=BV12482547 38=1000000 39=1 40=1 54=1 55=NOK 58=PARTIAL 59=0 60=20210310-04:30:00.707 76=GNSS 150=1 151=780000 167=CS 10=204
2021-03-10 12:30:13,202 : R << 8=FIX.4.2 9=248 35=8 34=169 49=VTUAT 52=20210310-04:30:14.135 56=TWUAT 6=3.96 11=1615350604903 14=221000 15=USD 17=3267474 20=0 31=3.96 32=1000 37=BV12482547 38=1000000 39=1 40=1 54=1 55=NOK 58=PARTIAL 59=0 60=20210310-04:30:00.707 76=GNSS 150=1 151=779000 167=CS 10=217
2021-03-10 12:30:13,203 : R << 8=FIX.4.2 9=248 35=8 34=170 49=VTUAT 52=20210310-04:30:14.137 56=TWUAT 6=3.96 11=1615350604903 14=222000 15=USD 17=3267475 20=0 31=3.96 32=1000 37=BV12482547 38=1000000 39=1 40=1 54=1 55=NOK 58=PARTIAL 59=0 60=20210310-04:30:00.723 76=GNSS 150=1 151=778000 167=CS 10=210
2021-03-10 12:30:13,204 : R << 8=FIX.4.2 9=248 35=8 34=171 49=VTUAT 52=20210310-04:30:14.138 56=TWUAT 6=3.96 11=1615350604903 14=223000 15=USD 17=3267476 20=0 31=3.96 32=1000 37=BV12482547 38=1000000 39=1 40=1 54=1 55=NOK 58=PARTIAL 59=0 60=20210310-04:30:00.723 76=GNSS 150=1 151=777000 167=CS 10=213
2021-03-10 12:30:13,211 : R << 8=FIX.4.2 9=248 35=8 34=172 49=VTUAT 52=20210310-04:30:14.140 56=TWUAT 6=3.96 11=1615350604903 14=229000 15=USD 17=3267482 20=0 31=3.96 32=1000 37=BV12482547 38=1000000 39=1 40=1 54=1 55=NOK 58=PARTIAL 59=0 60=20210310-04:30:00.740 76=GNSS 150=1 151=771000 167=CS 10=203
2021-03-10 12:30:13,213 : R << 8=FIX.4.2 9=248 35=8 34=173 49=VTUAT 52=20210310-04:30:14.142 56=TWUAT 6=3.96 11=1615350604903 14=230000 15=USD 17=3267483 20=0 31=3.96 32=1000 37=BV12482547 38=1000000 39=1 40=1 54=1 55=NOK 58=PARTIAL 59=0 60=20210310-04:30:00.740 76=GNSS 150=1 151=770000 167=CS 10=198
2021-03-10 12:30:13,215 : R << 8=FIX.4.2 9=248 35=8 34=174 49=VTUAT 52=20210310-04:30:14.144 56=TWUAT 6=3.96 11=1615350604903 14=231000 15=USD 17=3267484 20=0 31=3.96 32=1000 37=BV12482547 38=1000000 39=1 40=1 54=1 55=NOK 58=PARTIAL 59=0 60=20210310-04:30:00.740 76=GNSS 150=1 151=769000 167=CS 10=211
2021-03-10 12:30:13,216 : R << 8=FIX.4.2 9=248 35=8 34=175 49=VTUAT 52=20210310-04:30:14.146 56=TWUAT 6=3.96 11=1615350604903 14=232000 15=USD 17=3267485 20=0 31=3.96 32=1000 37=BV12482547 38=1000000 39=1 40=1 54=1 55=NOK 58=PARTIAL 59=0 60=20210310-04:30:00.757 76=GNSS 150=1 151=768000 167=CS 10=223
2021-03-10 12:30:13,217 : R << 8=FIX.4.2 9=248 35=8 34=176 49=VTUAT 52=20210310-04:30:14.148 56=TWUAT 6=3.96 11=1615350604903 14=233000 15=USD 17=3267486 20=0 31=3.96 32=1000 37=BV12482547 38=1000000 39=1 40=1 54=1 55=NOK 58=PARTIAL 59=0 60=20210310-04:30:00.757 76=GNSS 150=1 151=767000 167=CS 10=227
2021-03-10 12:30:13,218 : R << 8=FIX.4.2 9=248 35=8 34=177 49=VTUAT 52=20210310-04:30:14.150 56=TWUAT 6=3.96 11=1615350604903 14=234000 15=USD 17=3267487 20=0 31=3.96 32=1000 37=BV12482547 38=1000000 39=1 40=1 54=1 55=NOK 58=PARTIAL 59=0 60=20210310-04:30:00.757 76=GNSS 150=1 151=766000 167=CS 10=222
2021-03-10 12:30:13,221 : R << 8=FIX.4.2 9=248 35=8 34=178 49=VTUAT 52=20210310-04:30:14.152 56=TWUAT 6=3.96 11=1615350604903 14=235000 15=USD 17=3267488 20=0 31=3.96 32=1000 37=BV12482547 38=1000000 39=1 40=1 54=1 55=NOK 58=PARTIAL 59=0 60=20210310-04:30:00.757 76=GNSS 150=1 151=765000 167=CS 10=226
2021-03-10 12:30:13,232 : R << 8=FIX.4.2 9=248 35=8 34=179 49=VTUAT 52=20210310-04:30:14.153 56=TWUAT 6=3.96 11=1615350604903 14=236000 15=USD 17=3267489 20=0 31=3.96 32=1000 37=BV12482547 38=1000000 39=1 40=1 54=1 55=NOK 58=PARTIAL 59=0 60=20210310-04:30:00.757 76=GNSS 150=1 151=764000 167=CS 10=229
2021-03-10 12:30:13,233 : R << 8=FIX.4.2 9=248 35=8 34=180 49=VTUAT 52=20210310-04:30:14.155 56=TWUAT 6=3.96 11=1615350604903 14=242000 15=USD 17=3267495 20=0 31=3.96 32=1000 37=BV12482547 38=1000000 39=1 40=1 54=1 55=NOK 58=PARTIAL 59=0 60=20210310-04:30:00.787 76=GNSS 150=1 151=758000 167=CS 10=223
2021-03-10 12:30:13,234 : R << 8=FIX.4.2 9=248 35=8 34=181 49=VTUAT 52=20210310-04:30:14.157 56=TWUAT 6=3.96 11=1615350604903 14=243000 15=USD 17=3267496 20=0 31=3.96 32=1000 37=BV12482547 38=1000000 39=1 40=1 54=1 55=NOK 58=PARTIAL 59=0 60=20210310-04:30:00.787 76=GNSS 150=1 151=757000 167=CS 10=227
2021-03-10 12:30:13,236 : R << 8=FIX.4.2 9=248 35=8 34=182 49=VTUAT 52=20210310-04:30:14.160 56=TWUAT 6=3.96 11=1615350604903 14=244000 15=USD 17=3267497 20=0 31=3.96 32=1000 37=BV12482547 38=1000000 39=1 40=1 54=1 55=NOK 58=PARTIAL 59=0 60=20210310-04:30:00.787 76=GNSS 150=1 151=756000 167=CS 10=223
2021-03-10 12:30:13,237 : R << 8=FIX.4.2 9=248 35=8 34=183 49=VTUAT 52=20210310-04:30:14.162 56=TWUAT 6=3.96 11=1615350604903 14=245000 15=USD 17=3267498 20=0 31=3.96 32=1000 37=BV12482547 38=1000000 39=1 40=1 54=1 55=NOK 58=PARTIAL 59=0 60=20210310-04:30:00.787 76=GNSS 150=1 151=755000 167=CS 10=227
2021-03-10 12:30:13,238 : R << 8=FIX.4.2 9=248 35=8 34=184 49=VTUAT 52=20210310-04:30:14.164 56=TWUAT 6=3.96 11=1615350604903 14=246000 15=USD 17=3267499 20=0 31=3.96 32=1000 37=BV12482547 38=1000000 39=1 40=1 54=1 55=NOK 58=PARTIAL 59=0 60=20210310-04:30:00.803 76=GNSS 150=1 151=754000 167=CS 10=220
2021-03-10 12:30:13,240 : R << 8=FIX.4.2 9=248 35=8 34=185 49=VTUAT 52=20210310-04:30:14.166 56=TWUAT 6=3.96 11=1615350604903 14=247000 15=USD 17=3267500 20=0 31=3.96 32=1000 37=BV12482547 38=1000000 39=1 40=1 54=1 55=NOK 58=PARTIAL 59=0 60=20210310-04:30:00.803 76=GNSS 150=1 151=753000 167=CS 10=206
2021-03-10 12:30:13,241 : R << 8=FIX.4.2 9=248 35=8 34=186 49=VTUAT 52=20210310-04:30:14.167 56=TWUAT 6=3.96 11=1615350604903 14=248000 15=USD 17=3267501 20=0 31=3.96 32=1000 37=BV12482547 38=1000000 39=1 40=1 54=1 55=NOK 58=PARTIAL 59=0 60=20210310-04:30:00.803 76=GNSS 150=1 151=752000 167=CS 10=209
2021-03-10 12:30:13,243 : R << 8=FIX.4.2 9=248 35=8 34=187 49=VTUAT 52=20210310-04:30:14.170 56=TWUAT 6=3.96 11=1615350604903 14=253000 15=USD 17=3267506 20=0 31=3.96 32=1000 37=BV12482547 38=1000000 39=1 40=1 54=1 55=NOK 58=PARTIAL 59=0 60=20210310-04:30:00.817 76=GNSS 150=1 151=747000 167=CS 10=214
2021-03-10 12:30:13,244 : R << 8=FIX.4.2 9=248 35=8 34=188 49=VTUAT 52=20210310-04:30:14.172 56=TWUAT 6=3.96 11=1615350604903 14=254000 15=USD 17=3267507 20=0 31=3.96 32=1000 37=BV12482547 38=1000000 39=1 40=1 54=1 55=NOK 58=PARTIAL 59=0 60=20210310-04:30:00.817 76=GNSS 150=1 151=746000 167=CS 10=218
2021-03-10 12:30:13,246 : R << 8=FIX.4.2 9=248 35=8 34=189 49=VTUAT 52=20210310-04:30:14.174 56=TWUAT 6=3.96 11=1615350604903 14=255000 15=USD 17=3267508 20=0 31=3.96 32=1000 37=BV12482547 38=1000000 39=1 40=1 54=1 55=NOK 58=PARTIAL 59=0 60=20210310-04:30:00.833 76=GNSS 150=1 151=745000 167=CS 10=220
2021-03-10 12:30:13,247 : R << 8=FIX.4.2 9=248 35=8 34=190 49=VTUAT 52=20210310-04:30:14.176 56=TWUAT 6=3.96 11=1615350604903 14=256000 15=USD 17=3267509 20=0 31=3.96 32=1000 37=BV12482547 38=1000000 39=1 40=1 54=1 55=NOK 58=PARTIAL 59=0 60=20210310-04:30:00.833 76=GNSS 150=1 151=744000 167=CS 10=215
2021-03-10 12:30:13,249 : R << 8=FIX.4.2 9=248 35=8 34=191 49=VTUAT 52=20210310-04:30:14.178 56=TWUAT 6=3.96 11=1615350604903 14=257000 15=USD 17=3267510 20=0 31=3.96 32=1000 37=BV12482547 38=1000000 39=1 40=1 54=1 55=NOK 58=PARTIAL 59=0 60=20210310-04:30:00.833 76=GNSS 150=1 151=743000 167=CS 10=210
2021-03-10 12:30:13,251 : R << 8=FIX.4.2 9=248 35=8 34=192 49=VTUAT 52=20210310-04:30:14.179 56=TWUAT 6=3.96 11=1615350604903 14=258000 15=USD 17=3267511 20=0 31=3.96 32=1000 37=BV12482547 38=1000000 39=1 40=1 54=1 55=NOK 58=PARTIAL 59=0 60=20210310-04:30:00.833 76=GNSS 150=1 151=742000 167=CS 10=213
2021-03-10 12:30:13,253 : R << 8=FIX.4.2 9=248 35=8 34=193 49=VTUAT 52=20210310-04:30:14.182 56=TWUAT 6=3.96 11=1615350604903 14=259000 15=USD 17=3267512 20=0 31=3.96 32=1000 37=BV12482547 38=1000000 39=1 40=1 54=1 55=NOK 58=PARTIAL 59=0 60=20210310-04:30:00.833 76=GNSS 150=1 151=741000 167=CS 10=209
2021-03-10 12:30:13,267 : R << 8=FIX.4.2 9=248 35=8 34=194 49=VTUAT 52=20210310-04:30:14.184 56=TWUAT 6=3.96 11=1615350604903 14=265000 15=USD 17=3267518 20=0 31=3.96 32=1000 37=BV12482547 38=1000000 39=1 40=1 54=1 55=NOK 58=PARTIAL 59=0 60=20210310-04:30:00.863 76=GNSS 150=1 151=735000 167=CS 10=221
2021-03-10 12:30:13,270 : R << 8=FIX.4.2 9=248 35=8 34=195 49=VTUAT 52=20210310-04:30:14.185 56=TWUAT 6=3.96 11=1615350604903 14=266000 15=USD 17=3267519 20=0 31=3.96 32=1000 37=BV12482547 38=1000000 39=1 40=1 54=1 55=NOK 58=PARTIAL 59=0 60=20210310-04:30:00.863 76=GNSS 150=1 151=734000 167=CS 10=224
2021-03-10 12:30:13,273 : R << 8=FIX.4.2 9=248 35=8 34=196 49=VTUAT 52=20210310-04:30:14.187 56=TWUAT 6=3.96 11=1615350604903 14=267000 15=USD 17=3267520 20=0 31=3.96 32=1000 37=BV12482547 38=1000000 39=1 40=1 54=1 55=NOK 58=PARTIAL 59=0 60=20210310-04:30:00.863 76=GNSS 150=1 151=733000 167=CS 10=219
2021-03-10 12:30:13,275 : R << 8=FIX.4.2 9=248 35=8 34=197 49=VTUAT 52=20210310-04:30:14.189 56=TWUAT 6=3.96 11=1615350604903 14=268000 15=USD 17=3267521 20=0 31=3.96 32=1000 37=BV12482547 38=1000000 39=1 40=1 54=1 55=NOK 58=PARTIAL 59=0 60=20210310-04:30:00.863 76=GNSS 150=1 151=732000 167=CS 10=223
2021-03-10 12:30:13,279 : R << 8=FIX.4.2 9=248 35=8 34=198 49=VTUAT 52=20210310-04:30:14.191 56=TWUAT 6=3.96 11=1615350604903 14=269000 15=USD 17=3267522 20=0 31=3.96 32=1000 37=BV12482547 38=1000000 39=1 40=1 54=1 55=NOK 58=PARTIAL 59=0 60=20210310-04:30:00.880 76=GNSS 150=1 151=731000 167=CS 10=217
2021-03-10 12:30:13,280 : R << 8=FIX.4.2 9=248 35=8 34=199 49=VTUAT 52=20210310-04:30:14.193 56=TWUAT 6=3.96 11=1615350604903 14=270000 15=USD 17=3267523 20=0 31=3.96 32=1000 37=BV12482547 38=1000000 39=1 40=1 54=1 55=NOK 58=PARTIAL 59=0 60=20210310-04:30:00.880 76=GNSS 150=1 151=730000 167=CS 10=212
2021-03-10 12:30:13,282 : R << 8=FIX.4.2 9=248 35=8 34=200 49=VTUAT 52=20210310-04:30:14.195 56=TWUAT 6=3.96 11=1615350604903 14=276000 15=USD 17=3267529 20=0 31=3.96 32=1000 37=BV12482547 38=1000000 39=1 40=1 54=1 55=NOK 58=PARTIAL 59=0 60=20210310-04:30:00.897 76=GNSS 150=1 151=724000 167=CS 10=220
2021-03-10 12:30:13,284 : R << 8=FIX.4.2 9=248 35=8 34=201 49=VTUAT 52=20210310-04:30:14.197 56=TWUAT 6=3.96 11=1615350604903 14=277000 15=USD 17=3267530 20=0 31=3.96 32=1000 37=BV12482547 38=1000000 39=1 40=1 54=1 55=NOK 58=PARTIAL 59=0 60=20210310-04:30:00.897 76=GNSS 150=1 151=723000 167=CS 10=215
2021-03-10 12:30:13,292 : R << 8=FIX.4.2 9=248 35=8 34=202 49=VTUAT 52=20210310-04:30:14.199 56=TWUAT 6=3.96 11=1615350604903 14=278000 15=USD 17=3267531 20=0 31=3.96 32=1000 37=BV12482547 38=1000000 39=1 40=1 54=1 55=NOK 58=PARTIAL 59=0 60=20210310-04:30:00.913 76=GNSS 150=1 151=722000 167=CS 10=208
2021-03-10 12:30:13,298 : R << 8=FIX.4.2 9=248 35=8 34=203 49=VTUAT 52=20210310-04:30:14.201 56=TWUAT 6=3.96 11=1615350604903 14=279000 15=USD 17=3267532 20=0 31=3.96 32=1000 37=BV12482547 38=1000000 39=1 40=1 54=1 55=NOK 58=PARTIAL 59=0 60=20210310-04:30:00.913 76=GNSS 150=1 151=721000 167=CS 10=194
2021-03-10 12:30:13,301 : R << 8=FIX.4.2 9=248 35=8 34=204 49=VTUAT 52=20210310-04:30:14.203 56=TWUAT 6=3.96 11=1615350604903 14=280000 15=USD 17=3267533 20=0 31=3.96 32=1000 37=BV12482547 38=1000000 39=1 40=1 54=1 55=NOK 58=PARTIAL 59=0 60=20210310-04:30:00.913 76=GNSS 150=1 151=720000 167=CS 10=189
2021-03-10 12:30:13,312 : R << 8=FIX.4.2 9=248 35=8 34=205 49=VTUAT 52=20210310-04:30:14.205 56=TWUAT 6=3.96 11=1615350604903 14=281000 15=USD 17=3267534 20=0 31=3.96 32=1000 37=BV12482547 38=1000000 39=1 40=1 54=1 55=NOK 58=PARTIAL 59=0 60=20210310-04:30:00.913 76=GNSS 150=1 151=719000 167=CS 10=202
2021-03-10 12:30:13,314 : R << 8=FIX.4.2 9=248 35=8 34=206 49=VTUAT 52=20210310-04:30:14.207 56=TWUAT 6=3.96 11=1615350604903 14=287000 15=USD 17=3267540 20=0 31=3.96 32=1000 37=BV12482547 38=1000000 39=1 40=1 54=1 55=NOK 58=PARTIAL 59=0 60=20210310-04:30:00.943 76=GNSS 150=1 151=713000 167=CS 10=205
2021-03-10 12:30:13,318 : R << 8=FIX.4.2 9=248 35=8 34=207 49=VTUAT 52=20210310-04:30:14.208 56=TWUAT 6=3.96 11=1615350604903 14=288000 15=USD 17=3267541 20=0 31=3.96 32=1000 37=BV12482547 38=1000000 39=1 40=1 54=1 55=NOK 58=PARTIAL 59=0 60=20210310-04:30:00.943 76=GNSS 150=1 151=712000 167=CS 10=208
2021-03-10 12:30:13,319 : R << 8=FIX.4.2 9=248 35=8 34=208 49=VTUAT 52=20210310-04:30:14.210 56=TWUAT 6=3.96 11=1615350604903 14=289000 15=USD 17=3267542 20=0 31=3.96 32=1000 37=BV12482547 38=1000000 39=1 40=1 54=1 55=NOK 58=PARTIAL 59=0 60=20210310-04:30:00.943 76=GNSS 150=1 151=711000 167=CS 10=203
2021-03-10 12:30:13,328 : R << 8=FIX.4.2 9=248 35=8 34=209 49=VTUAT 52=20210310-04:30:14.213 56=TWUAT 6=3.96 11=1615350604903 14=290000 15=USD 17=3267543 20=0 31=3.96 32=1000 37=BV12482547 38=1000000 39=1 40=1 54=1 55=NOK 58=PARTIAL 59=0 60=20210310-04:30:00.943 76=GNSS 150=1 151=710000 167=CS 10=199
2021-03-10 12:30:13,330 : R << 8=FIX.4.2 9=248 35=8 34=210 49=VTUAT 52=20210310-04:30:14.215 56=TWUAT 6=3.96 11=1615350604903 14=291000 15=USD 17=3267544 20=0 31=3.96 32=1000 37=BV12482547 38=1000000 39=1 40=1 54=1 55=NOK 58=PARTIAL 59=0 60=20210310-04:30:00.943 76=GNSS 150=1 151=709000 167=CS 10=203
2021-03-10 12:30:13,331 : R << 8=FIX.4.2 9=248 35=8 34=211 49=VTUAT 52=20210310-04:30:14.217 56=TWUAT 6=3.96 11=1615350604903 14=292000 15=USD 17=3267545 20=0 31=3.96 32=1000 37=BV12482547 38=1000000 39=1 40=1 54=1 55=NOK 58=PARTIAL 59=0 60=20210310-04:30:00.960 76=GNSS 150=1 151=708000 167=CS 10=206
2021-03-10 12:30:13,337 : R << 8=FIX.4.2 9=248 35=8 34=212 49=VTUAT 52=20210310-04:30:14.218 56=TWUAT 6=3.96 11=1615350604903 14=297000 15=USD 17=3267550 20=0 31=3.96 32=1000 37=BV12482547 38=1000000 39=1 40=1 54=1 55=NOK 58=PARTIAL 59=0 60=20210310-04:30:00.977 76=GNSS 150=1 151=703000 167=CS 10=212
2021-03-10 12:30:13,343 : R << 8=FIX.4.2 9=248 35=8 34=213 49=VTUAT 52=20210310-04:30:14.220 56=TWUAT 6=3.96 11=1615350604903 14=298000 15=USD 17=3267551 20=0 31=3.96 32=1000 37=BV12482547 38=1000000 39=1 40=1 54=1 55=NOK 58=PARTIAL 59=0 60=20210310-04:30:00.977 76=GNSS 150=1 151=702000 167=CS 10=207
2021-03-10 12:30:13,346 : R << 8=FIX.4.2 9=248 35=8 34=214 49=VTUAT 52=20210310-04:30:14.222 56=TWUAT 6=3.96 11=1615350604903 14=299000 15=USD 17=3267552 20=0 31=3.96 32=1000 37=BV12482547 38=1000000 39=1 40=1 54=1 55=NOK 58=PARTIAL 59=0 60=20210310-04:30:00.977 76=GNSS 150=1 151=701000 167=CS 10=211
2021-03-10 12:30:13,348 : R << 8=FIX.4.2 9=248 35=8 34=215 49=VTUAT 52=20210310-04:30:14.224 56=TWUAT 6=3.96 11=1615350604903 14=300000 15=USD 17=3267553 20=0 31=3.96 32=1000 37=BV12482547 38=1000000 39=1 40=1 54=1 55=NOK 58=PARTIAL 59=0 60=20210310-04:30:00.977 76=GNSS 150=1 151=700000 167=CS 10=197
2021-03-10 12:30:13,362 : R << 8=FIX.4.2 9=248 35=8 34=216 49=VTUAT 52=20210310-04:30:14.226 56=TWUAT 6=3.96 11=1615350604903 14=301000 15=USD 17=3267554 20=0 31=3.96 32=1000 37=BV12482547 38=1000000 39=1 40=1 54=1 55=NOK 58=PARTIAL 59=0 60=20210310-04:30:00.990 76=GNSS 150=1 151=699000 167=CS 10=214
2021-03-10 12:30:13,366 : R << 8=FIX.4.2 9=248 35=8 34=217 49=VTUAT 52=20210310-04:30:14.228 56=TWUAT 6=3.96 11=1615350604903 14=302000 15=USD 17=3267555 20=0 31=3.96 32=1000 37=BV12482547 38=1000000 39=1 40=1 54=1 55=NOK 58=PARTIAL 59=0 60=20210310-04:30:01.007 76=GNSS 150=1 151=698000 167=CS 10=208
2021-03-10 12:30:13,373 : R << 8=FIX.4.2 9=248 35=8 34=218 49=VTUAT 52=20210310-04:30:14.230 56=TWUAT 6=3.96 11=1615350604903 14=307000 15=USD 17=3267560 20=0 31=3.96 32=1000 37=BV12482547 38=1000000 39=1 40=1 54=1 55=NOK 58=PARTIAL 59=0 60=20210310-04:30:01.023 76=GNSS 150=1 151=693000 167=CS 10=196
2021-03-10 12:30:13,376 : R << 8=FIX.4.2 9=248 35=8 34=219 49=VTUAT 52=20210310-04:30:14.232 56=TWUAT 6=3.96 11=1615350604903 14=308000 15=USD 17=3267561 20=0 31=3.96 32=1000 37=BV12482547 38=1000000 39=1 40=1 54=1 55=NOK 58=PARTIAL 59=0 60=20210310-04:30:01.023 76=GNSS 150=1 151=692000 167=CS 10=200
2021-03-10 12:30:13,378 : R << 8=FIX.4.2 9=248 35=8 34=220 49=VTUAT 52=20210310-04:30:14.235 56=TWUAT 6=3.96 11=1615350604903 14=309000 15=USD 17=3267562 20=0 31=3.96 32=1000 37=BV12482547 38=1000000 39=1 40=1 54=1 55=NOK 58=PARTIAL 59=0 60=20210310-04:30:01.023 76=GNSS 150=1 151=691000 167=CS 10=196
2021-03-10 12:30:13,391 : R << 8=FIX.4.2 9=248 35=8 34=221 49=VTUAT 52=20210310-04:30:14.237 56=TWUAT 6=3.96 11=1615350604903 14=310000 15=USD 17=3267563 20=0 31=3.96 32=1000 37=BV12482547 38=1000000 39=1 40=1 54=1 55=NOK 58=PARTIAL 59=0 60=20210310-04:30:01.023 76=GNSS 150=1 151=690000 167=CS 10=191
2021-03-10 12:30:13,393 : R << 8=FIX.4.2 9=248 35=8 34=222 49=VTUAT 52=20210310-04:30:14.239 56=TWUAT 6=3.96 11=1615350604903 14=311000 15=USD 17=3267564 20=0 31=3.96 32=1000 37=BV12482547 38=1000000 39=1 40=1 54=1 55=NOK 58=PARTIAL 59=0 60=20210310-04:30:01.037 76=GNSS 150=1 151=689000 167=CS 10=209
2021-03-10 12:30:13,400 : R << 8=FIX.4.2 9=248 35=8 34=223 49=VTUAT 52=20210310-04:30:14.241 56=TWUAT 6=3.96 11=1615350604903 14=317000 15=USD 17=3267570 20=0 31=3.96 32=1000 37=BV12482547 38=1000000 39=1 40=1 54=1 55=NOK 58=PARTIAL 59=0 60=20210310-04:30:01.053 76=GNSS 150=1 151=683000 167=CS 10=198
2021-03-10 12:30:13,402 : R << 8=FIX.4.2 9=248 35=8 34=224 49=VTUAT 52=20210310-04:30:14.243 56=TWUAT 6=3.96 11=1615350604903 14=318000 15=USD 17=3267571 20=0 31=3.96 32=1000 37=BV12482547 38=1000000 39=1 40=1 54=1 55=NOK 58=PARTIAL 59=0 60=20210310-04:30:01.053 76=GNSS 150=1 151=682000 167=CS 10=202
2021-03-10 12:30:13,409 : R << 8=FIX.4.2 9=248 35=8 34=225 49=VTUAT 52=20210310-04:30:14.245 56=TWUAT 6=3.96 11=1615350604903 14=319000 15=USD 17=3267572 20=0 31=3.96 32=1000 37=BV12482547 38=1000000 39=1 40=1 54=1 55=NOK 58=PARTIAL 59=0 60=20210310-04:30:01.053 76=GNSS 150=1 151=681000 167=CS 10=206
2021-03-10 12:30:13,413 : R << 8=FIX.4.2 9=248 35=8 34=226 49=VTUAT 52=20210310-04:30:14.247 56=TWUAT 6=3.96 11=1615350604903 14=320000 15=USD 17=3267573 20=0 31=3.96 32=1000 37=BV12482547 38=1000000 39=1 40=1 54=1 55=NOK 58=PARTIAL 59=0 60=20210310-04:30:01.070 76=GNSS 150=1 151=680000 167=CS 10=200
2021-03-10 12:30:13,420 : R << 8=FIX.4.2 9=248 35=8 34=227 49=VTUAT 52=20210310-04:30:14.248 56=TWUAT 6=3.96 11=1615350604903 14=321000 15=USD 17=3267574 20=0 31=3.96 32=1000 37=BV12482547 38=1000000 39=1 40=1 54=1 55=NOK 58=PARTIAL 59=0 60=20210310-04:30:01.070 76=GNSS 150=1 151=679000 167=CS 10=212
2021-03-10 12:30:13,422 : R << 8=FIX.4.2 9=248 35=8 34=228 49=VTUAT 52=20210310-04:30:14.250 56=TWUAT 6=3.96 11=1615350604903 14=322000 15=USD 17=3267575 20=0 31=3.96 32=1000 37=BV12482547 38=1000000 39=1 40=1 54=1 55=NOK 58=PARTIAL 59=0 60=20210310-04:30:01.070 76=GNSS 150=1 151=678000 167=CS 10=207
2021-03-10 12:30:13,425 : R << 8=FIX.4.2 9=248 35=8 34=229 49=VTUAT 52=20210310-04:30:14.252 56=TWUAT 6=3.96 11=1615350604903 14=327000 15=USD 17=3267580 20=0 31=3.96 32=1000 37=BV12482547 38=1000000 39=1 40=1 54=1 55=NOK 58=PARTIAL 59=0 60=20210310-04:30:01.083 76=GNSS 150=1 151=673000 167=CS 10=210
2021-03-10 12:30:13,428 : R << 8=FIX.4.2 9=248 35=8 34=230 49=VTUAT 52=20210310-04:30:14.254 56=TWUAT 6=3.96 11=1615350604903 14=328000 15=USD 17=3267581 20=0 31=3.96 32=1000 37=BV12482547 38=1000000 39=1 40=1 54=1 55=NOK 58=PARTIAL 59=0 60=20210310-04:30:01.083 76=GNSS 150=1 151=672000 167=CS 10=205
2021-03-10 12:30:13,437 : R << 8=FIX.4.2 9=248 35=8 34=231 49=VTUAT 52=20210310-04:30:14.256 56=TWUAT 6=3.96 11=1615350604903 14=329000 15=USD 17=3267582 20=0 31=3.96 32=1000 37=BV12482547 38=1000000 39=1 40=1 54=1 55=NOK 58=PARTIAL 59=0 60=20210310-04:30:01.100 76=GNSS 150=1 151=671000 167=CS 10=199
2021-03-10 12:30:13,438 : R << 8=FIX.4.2 9=248 35=8 34=232 49=VTUAT 52=20210310-04:30:14.258 56=TWUAT 6=3.96 11=1615350604903 14=330000 15=USD 17=3267583 20=0 31=3.96 32=1000 37=BV12482547 38=1000000 39=1 40=1 54=1 55=NOK 58=PARTIAL 59=0 60=20210310-04:30:01.100 76=GNSS 150=1 151=670000 167=CS 10=194
2021-03-10 12:30:13,440 : R << 8=FIX.4.2 9=248 35=8 34=233 49=VTUAT 52=20210310-04:30:14.260 56=TWUAT 6=3.96 11=1615350604903 14=331000 15=USD 17=3267584 20=0 31=3.96 32=1000 37=BV12482547 38=1000000 39=1 40=1 54=1 55=NOK 58=PARTIAL 59=0 60=20210310-04:30:01.100 76=GNSS 150=1 151=669000 167=CS 10=198
2021-03-10 12:30:13,440 : R << 8=FIX.4.2 9=248 35=8 34=234 49=VTUAT 52=20210310-04:30:14.262 56=TWUAT 6=3.96 11=1615350604903 14=336000 15=USD 17=3267589 20=0 31=3.96 32=1000 37=BV12482547 38=1000000 39=1 40=1 54=1 55=NOK 58=PARTIAL 59=0 60=20210310-04:30:01.117 76=GNSS 150=1 151=664000 167=CS 10=214
2021-03-10 12:30:13,442 : R << 8=FIX.4.2 9=248 35=8 34=235 49=VTUAT 52=20210310-04:30:14.264 56=TWUAT 6=3.96 11=1615350604903 14=337000 15=USD 17=3267590 20=0 31=3.96 32=1000 37=BV12482547 38=1000000 39=1 40=1 54=1 55=NOK 58=PARTIAL 59=0 60=20210310-04:30:01.117 76=GNSS 150=1 151=663000 167=CS 10=209
2021-03-10 12:30:13,447 : R << 8=FIX.4.2 9=248 35=8 34=236 49=VTUAT 52=20210310-04:30:14.266 56=TWUAT 6=3.96 11=1615350604903 14=338000 15=USD 17=3267591 20=0 31=3.96 32=1000 37=BV12482547 38=1000000 39=1 40=1 54=1 55=NOK 58=PARTIAL 59=0 60=20210310-04:30:01.130 76=GNSS 150=1 151=662000 167=CS 10=208
2021-03-10 12:30:13,453 : R << 8=FIX.4.2 9=248 35=8 34=237 49=VTUAT 52=20210310-04:30:14.268 56=TWUAT 6=3.96 11=1615350604903 14=339000 15=USD 17=3267592 20=0 31=3.96 32=1000 37=BV12482547 38=1000000 39=1 40=1 54=1 55=NOK 58=PARTIAL 59=0 60=20210310-04:30:01.130 76=GNSS 150=1 151=661000 167=CS 10=212
2021-03-10 12:30:13,456 : R << 8=FIX.4.2 9=248 35=8 34=238 49=VTUAT 52=20210310-04:30:14.270 56=TWUAT 6=3.96 11=1615350604903 14=340000 15=USD 17=3267593 20=0 31=3.96 32=1000 37=BV12482547 38=1000000 39=1 40=1 54=1 55=NOK 58=PARTIAL 59=0 60=20210310-04:30:01.130 76=GNSS 150=1 151=660000 167=CS 10=198
2021-03-10 12:30:13,457 : R << 8=FIX.4.2 9=248 35=8 34=239 49=VTUAT 52=20210310-04:30:14.272 56=TWUAT 6=3.96 11=1615350604903 14=345000 15=USD 17=3267598 20=0 31=3.96 32=1000 37=BV12482547 38=1000000 39=1 40=1 54=1 55=NOK 58=PARTIAL 59=0 60=20210310-04:30:01.147 76=GNSS 150=1 151=655000 167=CS 10=223
2021-03-10 12:30:13,460 : R << 8=FIX.4.2 9=248 35=8 34=240 49=VTUAT 52=20210310-04:30:14.274 56=TWUAT 6=3.96 11=1615350604903 14=346000 15=USD 17=3267599 20=0 31=3.96 32=1000 37=BV12482547 38=1000000 39=1 40=1 54=1 55=NOK 58=PARTIAL 59=0 60=20210310-04:30:01.147 76=GNSS 150=1 151=654000 167=CS 10=218
2021-03-10 12:30:13,470 : R << 8=FIX.4.2 9=248 35=8 34=241 49=VTUAT 52=20210310-04:30:14.276 56=TWUAT 6=3.96 11=1615350604903 14=347000 15=USD 17=3267600 20=0 31=3.96 32=1000 37=BV12482547 38=1000000 39=1 40=1 54=1 55=NOK 58=PARTIAL 59=0 60=20210310-04:30:01.163 76=GNSS 150=1 151=653000 167=CS 10=202
2021-03-10 12:30:13,471 : R << 8=FIX.4.2 9=248 35=8 34=242 49=VTUAT 52=20210310-04:30:14.278 56=TWUAT 6=3.96 11=1615350604903 14=348000 15=USD 17=3267601 20=0 31=3.96 32=1000 37=BV12482547 38=1000000 39=1 40=1 54=1 55=NOK 58=PARTIAL 59=0 60=20210310-04:30:01.163 76=GNSS 150=1 151=652000 167=CS 10=206
2021-03-10 12:30:13,475 : R << 8=FIX.4.2 9=248 35=8 34=243 49=VTUAT 52=20210310-04:30:14.280 56=TWUAT 6=3.96 11=1615350604903 14=349000 15=USD 17=3267602 20=0 31=3.96 32=1000 37=BV12482547 38=1000000 39=1 40=1 54=1 55=NOK 58=PARTIAL 59=0 60=20210310-04:30:01.163 76=GNSS 150=1 151=651000 167=CS 10=201
2021-03-10 12:30:13,483 : R << 8=FIX.4.2 9=248 35=8 34=244 49=VTUAT 52=20210310-04:30:14.282 56=TWUAT 6=3.96 11=1615350604903 14=354000 15=USD 17=3267607 20=0 31=3.96 32=1000 37=BV12482547 38=1000000 39=1 40=1 54=1 55=NOK 58=PARTIAL 59=0 60=20210310-04:30:01.177 76=GNSS 150=1 151=646000 167=CS 10=214
2021-03-10 12:30:13,484 : R << 8=FIX.4.2 9=248 35=8 34=245 49=VTUAT 52=20210310-04:30:14.284 56=TWUAT 6=3.96 11=1615350604903 14=355000 15=USD 17=3267608 20=0 31=3.96 32=1000 37=BV12482547 38=1000000 39=1 40=1 54=1 55=NOK 58=PARTIAL 59=0 60=20210310-04:30:01.177 76=GNSS 150=1 151=645000 167=CS 10=218
2021-03-10 12:30:13,485 : R << 8=FIX.4.2 9=248 35=8 34=246 49=VTUAT 52=20210310-04:30:14.285 56=TWUAT 6=3.96 11=1615350604903 14=356000 15=USD 17=3267609 20=0 31=3.96 32=1000 37=BV12482547 38=1000000 39=1 40=1 54=1 55=NOK 58=PARTIAL 59=0 60=20210310-04:30:01.177 76=GNSS 150=1 151=644000 167=CS 10=221
2021-03-10 12:30:13,487 : R << 8=FIX.4.2 9=248 35=8 34=247 49=VTUAT 52=20210310-04:30:14.287 56=TWUAT 6=3.96 11=1615350604903 14=357000 15=USD 17=3267610 20=0 31=3.96 32=1000 37=BV12482547 38=1000000 39=1 40=1 54=1 55=NOK 58=PARTIAL 59=0 60=20210310-04:30:01.193 76=GNSS 150=1 151=643000 167=CS 10=214
2021-03-10 12:30:13,489 : R << 8=FIX.4.2 9=248 35=8 34=248 49=VTUAT 52=20210310-04:30:14.289 56=TWUAT 6=3.96 11=1615350604903 14=358000 15=USD 17=3267611 20=0 31=3.96 32=1000 37=BV12482547 38=1000000 39=1 40=1 54=1 55=NOK 58=PARTIAL 59=0 60=20210310-04:30:01.193 76=GNSS 150=1 151=642000 167=CS 10=218
2021-03-10 12:30:13,492 : R << 8=FIX.4.2 9=248 35=8 34=249 49=VTUAT 52=20210310-04:30:14.291 56=TWUAT 6=3.96 11=1615350604903 14=363000 15=USD 17=3267616 20=0 31=3.96 32=1000 37=BV12482547 38=1000000 39=1 40=1 54=1 55=NOK 58=PARTIAL 59=0 60=20210310-04:30:01.210 76=GNSS 150=1 151=637000 167=CS 10=207
2021-03-10 12:30:13,495 : R << 8=FIX.4.2 9=248 35=8 34=250 49=VTUAT 52=20210310-04:30:14.293 56=TWUAT 6=3.96 11=1615350604903 14=364000 15=USD 17=3267617 20=0 31=3.96 32=1000 37=BV12482547 38=1000000 39=1 40=1 54=1 55=NOK 58=PARTIAL 59=0 60=20210310-04:30:01.210 76=GNSS 150=1 151=636000 167=CS 10=202
2021-03-10 12:30:13,497 : R << 8=FIX.4.2 9=248 35=8 34=251 49=VTUAT 52=20210310-04:30:14.294 56=TWUAT 6=3.96 11=1615350604903 14=365000 15=USD 17=3267618 20=0 31=3.96 32=1000 37=BV12482547 38=1000000 39=1 40=1 54=1 55=NOK 58=PARTIAL 59=0 60=20210310-04:30:01.210 76=GNSS 150=1 151=635000 167=CS 10=205
2021-03-10 12:30:13,499 : R << 8=FIX.4.2 9=248 35=8 34=252 49=VTUAT 52=20210310-04:30:14.296 56=TWUAT 6=3.96 11=1615350604903 14=366000 15=USD 17=3267619 20=0 31=3.96 32=1000 37=BV12482547 38=1000000 39=1 40=1 54=1 55=NOK 58=PARTIAL 59=0 60=20210310-04:30:01.210 76=GNSS 150=1 151=634000 167=CS 10=209
2021-03-10 12:30:13,502 : R << 8=FIX.4.2 9=248 35=8 34=253 49=VTUAT 52=20210310-04:30:14.298 56=TWUAT 6=3.96 11=1615350604903 14=367000 15=USD 17=3267620 20=0 31=3.96 32=1000 37=BV12482547 38=1000000 39=1 40=1 54=1 55=NOK 58=PARTIAL 59=0 60=20210310-04:30:01.227 76=GNSS 150=1 151=633000 167=CS 10=212
2021-03-10 12:30:13,505 : R << 8=FIX.4.2 9=248 35=8 34=254 49=VTUAT 52=20210310-04:30:14.299 56=TWUAT 6=3.96 11=1615350604903 14=371000 15=USD 17=3267624 20=0 31=3.96 32=1000 37=BV12482547 38=1000000 39=1 40=1 54=1 55=NOK 58=PARTIAL 59=0 60=20210310-04:30:01.227 76=GNSS 150=1 151=629000 167=CS 10=218
2021-03-10 12:30:13,516 : R << 8=FIX.4.2 9=248 35=8 34=255 49=VTUAT 52=20210310-04:30:14.301 56=TWUAT 6=3.96 11=1615350604903 14=372000 15=USD 17=3267625 20=0 31=3.96 32=1000 37=BV12482547 38=1000000 39=1 40=1 54=1 55=NOK 58=PARTIAL 59=0 60=20210310-04:30:01.240 76=GNSS 150=1 151=628000 167=CS 10=199
2021-03-10 12:30:13,519 : R << 8=FIX.4.2 9=248 35=8 34=256 49=VTUAT 52=20210310-04:30:14.303 56=TWUAT 6=3.96 11=1615350604903 14=373000 15=USD 17=3267626 20=0 31=3.96 32=1000 37=BV12482547 38=1000000 39=1 40=1 54=1 55=NOK 58=PARTIAL 59=0 60=20210310-04:30:01.240 76=GNSS 150=1 151=627000 167=CS 10=203
2021-03-10 12:30:13,521 : R << 8=FIX.4.2 9=248 35=8 34=257 49=VTUAT 52=20210310-04:30:14.304 56=TWUAT 6=3.96 11=1615350604903 14=374000 15=USD 17=3267627 20=0 31=3.96 32=1000 37=BV12482547 38=1000000 39=1 40=1 54=1 55=NOK 58=PARTIAL 59=0 60=20210310-04:30:01.240 76=GNSS 150=1 151=626000 167=CS 10=206
2021-03-10 12:30:13,523 : R << 8=FIX.4.2 9=248 35=8 34=258 49=VTUAT 52=20210310-04:30:14.306 56=TWUAT 6=3.96 11=1615350604903 14=375000 15=USD 17=3267628 20=0 31=3.96 32=1000 37=BV12482547 38=1000000 39=1 40=1 54=1 55=NOK 58=PARTIAL 59=0 60=20210310-04:30:01.240 76=GNSS 150=1 151=625000 167=CS 10=210
2021-03-10 12:30:13,526 : R << 8=FIX.4.2 9=248 35=8 34=259 49=VTUAT 52=20210310-04:30:14.308 56=TWUAT 6=3.96 11=1615350604903 14=380000 15=USD 17=3267633 20=0 31=3.96 32=1000 37=BV12482547 38=1000000 39=1 40=1 54=1 55=NOK 58=PARTIAL 59=0 60=20210310-04:30:01.257 76=GNSS 150=1 151=620000 167=CS 10=208
2021-03-10 12:30:13,529 : R << 8=FIX.4.2 9=248 35=8 34=260 49=VTUAT 52=20210310-04:30:14.310 56=TWUAT 6=3.96 11=1615350604903 14=381000 15=USD 17=3267634 20=0 31=3.96 32=1000 37=BV12482547 38=1000000 39=1 40=1 54=1 55=NOK 58=PARTIAL 59=0 60=20210310-04:30:01.257 76=GNSS 150=1 151=619000 167=CS 10=203
2021-03-10 12:30:13,531 : R << 8=FIX.4.2 9=248 35=8 34=261 49=VTUAT 52=20210310-04:30:14.312 56=TWUAT 6=3.96 11=1615350604903 14=382000 15=USD 17=3267635 20=0 31=3.96 32=1000 37=BV12482547 38=1000000 39=1 40=1 54=1 55=NOK 58=PARTIAL 59=0 60=20210310-04:30:01.273 76=GNSS 150=1 151=618000 167=CS 10=205
2021-03-10 12:30:13,532 : R << 8=FIX.4.2 9=248 35=8 34=262 49=VTUAT 52=20210310-04:30:14.314 56=TWUAT 6=3.96 11=1615350604903 14=383000 15=USD 17=3267636 20=0 31=3.96 32=1000 37=BV12482547 38=1000000 39=1 40=1 54=1 55=NOK 58=PARTIAL 59=0 60=20210310-04:30:01.273 76=GNSS 150=1 151=617000 167=CS 10=209
2021-03-10 12:30:13,534 : R << 8=FIX.4.2 9=248 35=8 34=263 49=VTUAT 52=20210310-04:30:14.316 56=TWUAT 6=3.96 11=1615350604903 14=388000 15=USD 17=3267641 20=0 31=3.96 32=1000 37=BV12482547 38=1000000 39=1 40=1 54=1 55=NOK 58=PARTIAL 59=0 60=20210310-04:30:01.287 76=GNSS 150=1 151=612000 167=CS 10=213
2021-03-10 12:30:13,538 : R << 8=FIX.4.2 9=248 35=8 34=264 49=VTUAT 52=20210310-04:30:14.317 56=TWUAT 6=3.96 11=1615350604903 14=389000 15=USD 17=3267642 20=0 31=3.96 32=1000 37=BV12482547 38=1000000 39=1 40=1 54=1 55=NOK 58=PARTIAL 59=0 60=20210310-04:30:01.287 76=GNSS 150=1 151=611000 167=CS 10=216
2021-03-10 12:30:13,541 : R << 8=FIX.4.2 9=248 35=8 34=265 49=VTUAT 52=20210310-04:30:14.319 56=TWUAT 6=3.96 11=1615350604903 14=390000 15=USD 17=3267643 20=0 31=3.96 32=1000 37=BV12482547 38=1000000 39=1 40=1 54=1 55=NOK 58=PARTIAL 59=0 60=20210310-04:30:01.287 76=GNSS 150=1 151=610000 167=CS 10=211
2021-03-10 12:30:13,548 : R << 8=FIX.4.2 9=248 35=8 34=266 49=VTUAT 52=20210310-04:30:14.322 56=TWUAT 6=3.96 11=1615350604903 14=391000 15=USD 17=3267644 20=0 31=3.96 32=1000 37=BV12482547 38=1000000 39=1 40=1 54=1 55=NOK 58=PARTIAL 59=0 60=20210310-04:30:01.303 76=GNSS 150=1 151=609000 167=CS 10=205
2021-03-10 12:30:13,549 : R << 8=FIX.4.2 9=248 35=8 34=267 49=VTUAT 52=20210310-04:30:14.324 56=TWUAT 6=3.96 11=1615350604903 14=392000 15=USD 17=3267645 20=0 31=3.96 32=1000 37=BV12482547 38=1000000 39=1 40=1 54=1 55=NOK 58=PARTIAL 59=0 60=20210310-04:30:01.303 76=GNSS 150=1 151=608000 167=CS 10=209
2021-03-10 12:30:13,552 : R << 8=FIX.4.2 9=248 35=8 34=268 49=VTUAT 52=20210310-04:30:14.326 56=TWUAT 6=3.96 11=1615350604903 14=396000 15=USD 17=3267649 20=0 31=3.96 32=1000 37=BV12482547 38=1000000 39=1 40=1 54=1 55=NOK 58=PARTIAL 59=0 60=20210310-04:30:01.320 76=GNSS 150=1 151=604000 167=CS 10=215
2021-03-10 12:30:13,556 : R << 8=FIX.4.2 9=248 35=8 34=269 49=VTUAT 52=20210310-04:30:14.328 56=TWUAT 6=3.96 11=1615350604903 14=397000 15=USD 17=3267650 20=0 31=3.96 32=1000 37=BV12482547 38=1000000 39=1 40=1 54=1 55=NOK 58=PARTIAL 59=0 60=20210310-04:30:01.320 76=GNSS 150=1 151=603000 167=CS 10=210
2021-03-10 12:30:13,564 : R << 8=FIX.4.2 9=248 35=8 34=270 49=VTUAT 52=20210310-04:30:14.330 56=TWUAT 6=3.96 11=1615350604903 14=398000 15=USD 17=3267651 20=0 31=3.96 32=1000 37=BV12482547 38=1000000 39=1 40=1 54=1 55=NOK 58=PARTIAL 59=0 60=20210310-04:30:01.320 76=GNSS 150=1 151=602000 167=CS 10=196
2021-03-10 12:30:13,567 : R << 8=FIX.4.2 9=248 35=8 34=271 49=VTUAT 52=20210310-04:30:14.332 56=TWUAT 6=3.96 11=1615350604903 14=399000 15=USD 17=3267652 20=0 31=3.96 32=1000 37=BV12482547 38=1000000 39=1 40=1 54=1 55=NOK 58=PARTIAL 59=0 60=20210310-04:30:01.320 76=GNSS 150=1 151=601000 167=CS 10=200
2021-03-10 12:30:13,568 : R << 8=FIX.4.2 9=248 35=8 34=272 49=VTUAT 52=20210310-04:30:14.334 56=TWUAT 6=3.96 11=1615350604903 14=403000 15=USD 17=3267656 20=0 31=3.96 32=1000 37=BV12482547 38=1000000 39=1 40=1 54=1 55=NOK 58=PARTIAL 59=0 60=20210310-04:30:01.333 76=GNSS 150=1 151=597000 167=CS 10=211
2021-03-10 12:30:13,583 : R << 8=FIX.4.2 9=248 35=8 34=273 49=VTUAT 52=20210310-04:30:14.336 56=TWUAT 6=3.96 11=1615350604903 14=404000 15=USD 17=3267657 20=0 31=3.96 32=1000 37=BV12482547 38=1000000 39=1 40=1 54=1 55=NOK 58=PARTIAL 59=0 60=20210310-04:30:01.333 76=GNSS 150=1 151=596000 167=CS 10=215
2021-03-10 12:30:13,585 : R << 8=FIX.4.2 9=248 35=8 34=274 49=VTUAT 52=20210310-04:30:14.338 56=TWUAT 6=3.96 11=1615350604903 14=405000 15=USD 17=3267658 20=0 31=3.96 32=1000 37=BV12482547 38=1000000 39=1 40=1 54=1 55=NOK 58=PARTIAL 59=0 60=20210310-04:30:01.350 76=GNSS 150=1 151=595000 167=CS 10=218
2021-03-10 12:30:13,589 : R << 8=FIX.4.2 9=248 35=8 34=275 49=VTUAT 52=20210310-04:30:14.340 56=TWUAT 6=3.96 11=1615350604903 14=406000 15=USD 17=3267659 20=0 31=3.96 32=1000 37=BV12482547 38=1000000 39=1 40=1 54=1 55=NOK 58=PARTIAL 59=0 60=20210310-04:30:01.350 76=GNSS 150=1 151=594000 167=CS 10=213
2021-03-10 12:30:13,592 : R << 8=FIX.4.2 9=248 35=8 34=276 49=VTUAT 52=20210310-04:30:14.342 56=TWUAT 6=3.96 11=1615350604903 14=407000 15=USD 17=3267660 20=0 31=3.96 32=1000 37=BV12482547 38=1000000 39=1 40=1 54=1 55=NOK 58=PARTIAL 59=0 60=20210310-04:30:01.350 76=GNSS 150=1 151=593000 167=CS 10=208
2021-03-10 12:30:13,600 : R << 8=FIX.4.2 9=248 35=8 34=277 49=VTUAT 52=20210310-04:30:14.344 56=TWUAT 6=3.96 11=1615350604903 14=411000 15=USD 17=3267664 20=0 31=3.96 32=1000 37=BV12482547 38=1000000 39=1 40=1 54=1 55=NOK 58=PARTIAL 59=0 60=20210310-04:30:01.367 76=GNSS 150=1 151=589000 167=CS 10=223
2021-03-10 12:30:13,605 : R << 8=FIX.4.2 9=248 35=8 34=278 49=VTUAT 52=20210310-04:30:14.346 56=TWUAT 6=3.96 11=1615350604903 14=412000 15=USD 17=3267665 20=0 31=3.96 32=1000 37=BV12482547 38=1000000 39=1 40=1 54=1 55=NOK 58=PARTIAL 59=0 60=20210310-04:30:01.367 76=GNSS 150=1 151=588000 167=CS 10=227
2021-03-10 12:30:13,613 : R << 8=FIX.4.2 9=248 35=8 34=279 49=VTUAT 52=20210310-04:30:14.348 56=TWUAT 6=3.96 11=1615350604903 14=413000 15=USD 17=3267666 20=0 31=3.96 32=1000 37=BV12482547 38=1000000 39=1 40=1 54=1 55=NOK 58=PARTIAL 59=0 60=20210310-04:30:01.367 76=GNSS 150=1 151=587000 167=CS 10=231
2021-03-10 12:30:13,615 : R << 8=FIX.4.2 9=248 35=8 34=280 49=VTUAT 52=20210310-04:30:14.350 56=TWUAT 6=3.96 11=1615350604903 14=414000 15=USD 17=3267667 20=0 31=3.96 32=1000 37=BV12482547 38=1000000 39=1 40=1 54=1 55=NOK 58=PARTIAL 59=0 60=20210310-04:30:01.380 76=GNSS 150=1 151=586000 167=CS 10=212
